{
  "contractName": "DoubleMyContract",
  "abi": [
    {
      "constant": true,
      "inputs": [],
      "name": "balance",
      "outputs": [
        {
          "internalType": "uint256",
          "name": "",
          "type": "uint256"
        }
      ],
      "payable": false,
      "stateMutability": "view",
      "type": "function"
    },
    {
      "constant": true,
      "inputs": [],
      "name": "balance1",
      "outputs": [
        {
          "internalType": "uint256",
          "name": "",
          "type": "uint256"
        }
      ],
      "payable": false,
      "stateMutability": "view",
      "type": "function"
    },
    {
      "constant": false,
      "inputs": [
        {
          "internalType": "uint256",
          "name": "_amount",
          "type": "uint256"
        }
      ],
      "name": "SendResponse",
      "outputs": [],
      "payable": false,
      "stateMutability": "nonpayable",
      "type": "function"
    }
  ],
  "bytecode": "0x608060405234801561001057600080fd5b5060fa8061001f6000396000f3fe6080604052348015600f57600080fd5b5060043610603c5760003560e01c806302d17284146041578063b69ef8a814606c578063c45c4f58146088575b600080fd5b606a60048036036020811015605557600080fd5b810190808035906020019092919050505060a4565b005b607260b9565b6040518082815260200191505060405180910390f35b608e60bf565b6040518082815260200191505060405180910390f35b60028102600081905550603260018190555050565b60005481565b6001548156fea265627a7a72315820768675d3f525e394122cd0d219a3c51adba764ff2fc102edfbb6ce8eebd5ae0164736f6c63430005100032",
  "source": "// SPDX-License-Identifier: MIT\r\npragma solidity >=0.4.25 <0.9.0;\r\n\r\ncontract DoubleMyContract {\r\n    uint256 public balance; //State variable\r\n    uint256 public balance1; //State variable\r\n\r\n    // call this function to send a response\r\n    function SendResponse(uint256 _amount) public {\r\n        balance = _amount * 2;\r\n        balance1 = 50;\r\n    }\r\n}\r\n",
  "sourcePath": "c:\\Users\\Sait\\Documents\\GitHub\\ZeppelinProject\\truffleautoproject4\\contracts\\DoubleMyContract.sol",
  "compiler": {
    "name": "solc",
    "version": "0.5.16+commit.9c3226ce.Emscripten.clang"
  },
  "schemaVersion": "3.4.10",
  "updatedAt": "2022-11-18T19:29:39.466Z",
  "devdoc": {
    "methods": {}
  },
  "userdoc": {
    "methods": {}
  }
}